:020000040000FA
:2010000000000420F96F00002170000023700000257000002770000029700000000000005B
:201020000000000000000000000000002B7000002D700000000000002F7000003170000038
:20104000B18F0000CD85000045090100337000003370000033700000398C0000337000005E
:2010600069DC00003370000033700000BD90000033700000C18F000033700000337000005F
:20108000C9AD00003370000033700000337000003370000033700000337000003370000065
:2010A00033700000337000003370000033700000337000003370000000000000000000005E
:2010C00033700000337000003370000033700000337000003370000033700000B1A8000042
:2010E0003370000033700000337000000000000000000000337000000000000033700000C1
:201100000000000000000000000000000000000000000000000000000000000000000000CF
:201120000000000000000000000000000000000000000000000000000000000000000000AF
:2011400000000000000000000000000000000000000000000000000000000000000000008F
:2011600000000000000000000000000000000000000000000000000000000000000000006F
:2011800000000000000000000000000000000000000000000000000000000000000000004F
:2011A00000000000000000000000000000000000000000000000000000000000000000002F
:2011C00000000000000000000000000000000000000000000000000000000000000000000F
:2011E0000000000000000000000000000000000000000000000000000000000000000000EF
:2012000001F0FF01102A2BDB10F0070F08D010F8013B013A8B422DD010F0070F42B3F6D194
:20122000F0B441EA012141EA014122F007047FF000070023F0E80256083C85EA010586EA41
:20124000010685FA47F5A3FA87F586FA47F6A5FA87F68EB9EED1F0BC01F0FF0102F007023C
:2012600032B110F8013B013A83EA010313B1F8D10020704701387047002D06BF354603389F
:20128000073815F0010F07D1013015F4807F02BF013015F4C03F0130F0BC0138704700BF63
:2012A00010B5054C237833B9044B13B10448AFF300800123237010BD7807002000000000ED
:2012C000A44A010008B5034B1BB103490348AFF3008008BD000000007C070020A44A010038
:2012E000A3F5803A704700BF174B002B08BF134B9D46FFF7F5FF00218B460F461348144AA7
:20130000121A12F083FC0E4B002B00D098470D4B002B00D098470020002104000D000D4814
:20132000002802D00C48AFF3008011F055FB2000290004F08DFD11F03BFB00BF0000080027
:201340000000000000000000000004203003002078320020000000000000000000B585B062
:201360000346002101AA44F20100CDE90111039300F004F805B05DF804FB00BF72B6094B93
:20138000D3F8F030DB0700D500BEBFF34F8F0549054BCA6802F4E0621343CB60BFF34F8F44
:2013A00000BFFDE700ED00E00400FA05014B02481B68184794070020583F01000378052B44
:2013C00002D0094B1B681847084BD3F88424D3F88034DBB2002BF4D1054BD2B2052A08BF79
:2013E0001846014B1B6818479407002000700240543F0100012803D0022809D020B17047D9
:20140000054B06481B681847034B05481B681847014B04481B681847940700204C3F01000E
:20142000503F0100483F01002DE9F04F89B0002504460E4601929846049500E00135626859
:201440000123D2F804902146002204A8C8470028F4D18DF80E00069085B3814682460BE0FE
:201460009DF80E306768023BD7F804B0D8479DF80E309A44554521D960680123D0F804B03E
:201480000DF10E02214606A8D84760680123D0F804B00DF10F02214606A8D8479DF80F308B
:2014A000B3424FF00002214606A8D9D1019B4B4508D009F101095FFA89F9D1E7052009B0BE
:2014C000BDE8F08F129A9DF80E30136088F8003088F801606268023B556808F10202A847B5
:2014E000002009B0BDE8F08FF0B5054683B03B4808F010FD044610B1204603B0F0BD3849F2
:20150000384A394B08701060014648221860374812F07CFB36484822214612F077FB002DCC
:2015200053D095E80700334B83E80700002846D0002007F047F908B1852843D12E4C237AEE
:20154000002B48D0013BDBB204F10C024FF0030E6568274E254F1EFB032E04F1090C9CF88E
:201560000110D9B19CF802000CF10103013903440CEB000253FA81F112F8013B13F0800F28
:2015800003F00F000ABF03F00F0307EBC00306EBC30391421C6028685860EDD10CF1030CAE
:2015A000F445DCD10B238DF804302B68124801A99847044600289FD008F0EAFC9CE70F4A4D
:2015C0001A60B5E7FFF7CAFEB8E70A4B0B4A1D72C3E90025ACE76568E4E700BFBD130000D4
:2015E000413200203008002034080020A0070020E807002094070020843F01006D190000C9
:2016000010B508F0E5FD68B108F0EAFD044648B9064807F0EBF8034628B1FFF79FFE2346A2
:20162000184610BD0823184610BD00BF443F010008F0B8BC09F0E0BA4FF0804303E0D3F837
:201640003824D10707D5D3F838249207F7D5024B02481B6818477047940700206C3F010057
:2016600000B5054B83B082221B688DF8042001A8984703B05DF804FB940700202DE9F043CF
:20168000077A83B0002F59D007F1FF3E5FFA8EF300F1090C00F10C024FF0030E304D314EDE
:2016A00061461EFB032E4C780022944201EB020319D091F8028013F9089013F80830B9F107
:2016C000000F0BDB03F00F0305EBC3031B680132002BEAD0112003B0BDE8F08303F00F03BE
:2016E00006EBC303F2E703318E45DCD100241C4D1C4E224602EB420262445378D3B14FF0E2
:20170000000E7346917813440EF1010E5F56595C002F01F00F03B4BF06EBC30305EBC30318
:20172000186041680968596051785FFA8EF39942E8D8077A0134E2B29742DBD80A4A13687B
:201740001BB11A681368002BFBD1106043680B228DF804201B6801A9984703B0BDE8F08301
:20176000E8070020A007002030080020024B1878003818BF0120704740320020030710B516
:20178000044604D52046BDE8104009F0A7BA08F0BDFE204609F0FAFA2046BDE8104009F017
:2017A0009DBA00BF09F068BA014B1868704700BF3008002030B50F4B1D68A5B12C7AA4B149
:2017C00000232A469C4603E05FFA83FC64450CD992F809E0864503F1010302F10302F3D159
:2017E00009B181F800C0284630BD2B681D68002DE4D1F8E730080020436811461B68184786
:2018000000F00F03082B0AD802064CBF054A064A02EBC303186810B143681B68184710204E
:20182000704700BFA0070020E807002038B5094B1C6864B1054602E023681C683CB163688E
:2018400020461B68294698470628F5D038BD062038BD00BF3008002038B504460D4608F0B5
:201860002DFD18B1054B1B78022B01D0082038BD29462046BDE8384008F030BD413200200D
:2018800038B504460D4608F019FD18B1054B1B78022B01D0082038BD29462046BDE83840F7
:2018A00008F0ACBD4132002070B543689B6882B006460D46144623B19847062801D002B0D2
:2018C00070BD1CBB337AAB4225D9093605EB450535446E78BEB13246234600E06A789A42A6
:2018E00016D9AB782A19D05C030706D4019008F00DFE019809F04AFA0198013409F0EEF96B
:20190000E3B29E42EAD8002002B070BD0720D6E700231B78FFDE6378FFDE00BF70B54368D3
:20192000DB6805460C4603B198472B7AA3421AD9093504EB44042C4466789EB10025324608
:201940002B4693420BD2A37862190135D05C09F093F9EBB29E4205D962789342F3D30023F4
:201960001B78FFDE70BD00235B78FFDE2DE9F04103780546852B00F2D280DFE813F04902E1
:20198000CB01D2006502A102F000F700D000110124013701D000D000D000D0004A01D0001E
:2019A000D000D000D000D000D000D000D000D000D000D000D000D000D000D000D000D00027
:2019C000D000D000D000D000D000D000D000D000D000D000D000D000D000D000D000D00007
:2019E000D000D000D000D000D000D000D000D000D000D000D000D000D000D000D000D000E7
:201A0000D000D000D000D000D000D000D000D000D000D000D000D000D000D000D000D000C6
:201A2000D000D000D000D000D000D000D000D000D000D000D000D000D000D000D000D000A6
:201A4000D000D000D000D000D000D000D000D000D000D000D000D000D000D000D000D00086
:201A6000D000D000D000D000D000D000D000D000D000D000D000D000D000D000D0005E01D7
:201A800086007D012B020E02F000734B734F5A687349186890473C68002C00F07482704D4D
:201AA000636820461B682946984723681C68002CF6D1DFF8BC81D8F804300BB10D20984742
:201AC0003D6875B12E7A46B10024214628460134FFF724FFE1B28E42F8D82B681D68002DDD
:201AE000F0D101F0B1FB5F4B1B68002B00F0638201205D4E08F03CFB3278931EDBB2062B47
:201B000000F249825949CB5C13B106F041FE3278022A40F0408208F0A7FB01233370BDE878
:201B2000F081514E3278931EDBB2062B40F2F481082A01D108F098FB4D4B5B680322327024
:201B40000BB102209847454B1C6844B1636820461B682946984723681C68002CF6D13E4B32
:201B60002946D3E90002BDE8F041104790F902308278002BB4BF3F4B374B02F00F0203EBBB
:201B8000C203D3E90002294690470028C7D0A8780207C4D00307C2D4BDE8F04108F088BC4E
:201BA000334B5B680BB1082098472C4B1C68002CB5D0636820461B682946984723681C6864
:201BC000002CF6D1ABE72A4B5B680BB109209847224B1C68002CA2D0636820461B682946D2
:201BE000984723681C68002CF6D198E7204B5B680BB10A209847194B1C68002C8FD0636854
:201C000020461B682946984723681C68002CF6D185E7174B5B680BB10F2098470F4B1C6852
:201C2000002C3FF47CAF636820461B682946984723681C68002CF6D171E70B4C2378062B9B
:201C400000F0818103F0FD03052B7FF468AF08F015FB0223237062E7E80700203008002075
:201C6000683F010034080020413200203C3F010094070020A0070020894F3D6875B12E7A84
:201C800046B10024214628460134FFF747FEE1B28E42F8D82B681D68002DF0D1814E08F0E4
:201CA0005FFF3278931EDBB2062B30D87E49CB5C13B106F06DFD3278022A28D108F0D4FAFE
:201CC0003C68002333704CB1784D636820461B682946984723681C68002CF6D1744B734959
:201CE000D3E900029047734B5B680BB10E2098473378023BDBB2062B3FF611AF6A4AD35C87
:201D0000002B3FF40CAFBDE8F04106F041BD082AD6D1D3E7624F3E688EB196F80880B8F1F8
:201D2000000F08D00024214630460134FFF7F6FDE1B28845F8D833681E68002EEDD1594EB9
:201D400001F078FA3278931EDBB2062B00F2EE805549CB5C002B00F0E980022A03D0082A2D
:201D600001D008F08BFA534B5B68022232700BB1012098474E4B2946D3E9000290473C68F1
:201D8000002C3FF4CCAE636820461B682946984723681C68002CF6D1C1E6424E3378032B56
:201DA00000F0DA8008F026FA00283FF4B8AE3278931EDBB2062B40F20A813F4806F0BAFCF7
:201DC0003278022A01D0082A01D108F04DFA06233370A4E6334E3378032B7FF4A0AE08F0B0
:201DE000E1FE00283FF49BAE33789A1ED2B2062A00F2F6802C498A5C12B106F0C9FC33785D
:201E0000022B40F0ED8008F02FFA0423337086E6244B1B78032B00F09B80082B00F098802B
:201E2000244B5B680BB100209847244B1C68002C3FF475AE636820461B68294698472368B3
:201E40005C68002CF6D16AE6164E3278082A72D0931EDBB2062B00F2A2801349CB5C002BC8
:201E600000F09D80022A00F0A38005233370114B5B680BB1032098470D4B2946D3E90002E9
:201E80009047074B1C68002C3FF449AE636820461B682946984723681C68002CF6D13EE617
:201EA00030080020413200203C3F0100643F0100E8070020940700200800002034080020C9
:201EC000494B5B680BB103209847484B4849D3E900029047474B1C684CB1454D636820465E
:201EE0001B682946984723681C68002CF6D1424E3378062B24D0082B0BD09A1ED2B2062A35
:201F00005CD83E498A5C002A58D0022B01D008F0B5F90223337002E63849CB5C13B106F018
:201F200037FC3278022A3FF405AE01E6344806F001FC327811E70223337008F0A9F996E7DB
:201F400007233370EBE508F099F908232370E6E52C48FFF70BFD63E708F024FE00283FF4A0
:201F600021AF33789A1ED2B2062A36D823498A5C12B106F00DFC3378022B2ED108F074F91C
:201F8000042333700EE7DFF86080D8F80430002B7FF494ADA5E5082A7FF4BFADBBE518484D
:201FA00006F0C8FB3378022B02D0082B7FF45DAF08F05AF959E798F808009AE5104806F01C
:201FC000B9FB3378022BA4D0082BA2D09FE70B49CB5C002B7FF4F5AEEFE6082BD0D1CDE7BD
:201FE000082B7FF412AF0EE794070020E80700205C3F010030080020413200203C3F0100B8
:2020000008000020603F010043681B6903B118471846704770B50A4B1D687DB12E7A4EB1CD
:2020200000242146002228460134FFF73DFCE1B2B142F7D32B681D68002DEFD170BD00BFE0
:202040003008002070B5094B1D6875B12E7A46B10024214628460134FFF760FCE1B2B1425F
:20206000F8D32B681D68002DF0D170BD300800204360CA699A4205D38A6902600B67CB618D
:202080000020704701F1280202608B6700207047F0B5046891F808E0002C00F04484A4F226
:2020A000123CBCF17C0F00F28280BCF17C0F7ED8DFE81CF0C900E402CF02180346011F0341
:2020C000F20211037D007D007D007D007D007D00BC0316027D007D007D007D0078037C0246
:2020E0006B027D007D007D007E03000381007D007D007D007D00B803840281007D007D0047
:202100007D007D007D007D00CC037D007D007D007D006703930197027502C8027D007D0036
:20212000C102D602BA020602FF017D007D00F801260354019C037D007D00F9029003DD02C9
:20214000B203EB027D007D007D007D007D007D007D007D007D007D007D007D007D007D0007
:202160007D007D007D007D007D0056039E027D007D007D000D017D007D007D007D00AA03CF
:202180007D007D007D007D00A2037D007D007D007D007D007D007B034D017D007D007D0075
:2021A0007D00B8007D007D007D007D00B800002303601846F0BD002A00F0A2840479154695
:2021C0004FF0010C2C7000249C45047180F048830CF1010412B1057902F80C50BC4D91F837
:2021E00014C02D682E78B44500F03F83B94E6D783570B94E4FF0000C86F800C0AC45C0F063
:202200002983B64D95F800C00CF1010C5FFA8CFC85F800C0F445C0F0358340F29933036098
:202220000120F0BD012400250AB106795655AA4EA84D96F800C02D780CF1010C5FFA8CFCD6
:2022400086F800C0DAE7002A00F06F8404791470012B4FF00B04047140F2AA842546012690
:20226000022495559C420D7D057180F0D483661C15559E424FF00204047180F0BD83751CE2
:2022800094559D424FF00204047180F0A6836E1C54559E424FF00204047180F08883751C4A
:2022A0009455AB424E7E067140F26F836C1C5655A3424FF00005057140F25D831619013499
:2022C0003570864D4FF0000C85F800C0A2E7804C0125266800241AB190F804C002F804C0FC
:2022E00034780E7DA64200F0F8828E7DA64200F0AB834024AB42047140F2BF826C1C002A59
:2023000000F0D78206795655A3424FF00005057140F2BF821619013435706D4D0E7D2D6855
:202320002D78AE4200F0BA828E7DAE427FF47FAF0025A342057140F287842546013473E789
:20234000002A00F04484047901260025A0E7002A00F04A84057916460124DDE7002A00F086
:2023600056840679944601240225A3428CF80060057140F2BA822E46651C1655AB424FF0A5
:202380000504047140F2CA82264602EB050C6C1C2425A3428CF80060057140F2BA822E46E5
:2023A000651C1655AB424FF00604047140F2AC825619013534700E7D0671AB4240F29F829B
:2023C0006C1C5655A3428D7D057140F293821619013435703E4D2D6808E7002A00F0F98370
:2023E000047901264FF0000C02F80C40B3424FF00004047140F20583751C9455AB424FF09B
:202400001004047140F2EE826E1C5455B3424FF00104047140F2D08235199455AB424FF0C9
:202420000504047140F2B6826E1C5455B3424FF02404047140F2A482751C94559D424FF0C0
:202440000104047180F092822E1954559E424FF00304047180F08582751C94559D428E7D18
:20246000067180F079826C1C56559C424FF00405057180F06C821619013435709C424FF027
:202480002405057180F05E822E46651C16559D424FF00204047180F05082264602EB050CA8
:2024A0006C1C61E7002A00F0CB83057916460124E3E7002A00F0C683067901240025D3E735
:2024C000002A00F0AF83047901250026C5E700BF380800204232002044320020433200205D
:2024E000002A00F0968304791646012534700E7ABB4C2478B44280F0B98304EB440401F110
:202500000906B84F16F804C080F804C03444AB423C6040F27B826C1C002A00F08182067943
:202520005655A3424FF00005057140F2608204F1010C1555AB4C256863456C78047140F21A
:20254000478202EB0C060CF1010C34702C780D7DA54200F024828D7DA5427FF434AE0A24E6
:202560006345047140F27A830CF10104002A00F07882057902F80C50A3424FF00005057186
:2025800040F2118304F1010C1FE0964C2568002A00F02783047916464FF0010CD5E7002A36
:2025A00000F03A830479012600252EE7002A00F03B8305794FF0010C0024BAE7002A00F00F
:2025C0002F8305794FF0010C0024155563454FF00004047140F24F8202EB0C050CF1010C86
:2025E000F0E5002A00F0228304790125002604E7002A00F023830579944601248CF8005082
:20260000784D2E68784D96F801C02D78AC4540F22A8396F802C03544A34215F80C50057149
:2026200040F25681651C56E6002A00F0D48204790126002509E7002A00F0CF82047901269C
:202640000025F2E6002A00F0D982047901250026E3E6002A00F0E28205790126002407E642
:20266000002A00F0E782047901250026E5E6002A00F0BF820479164601259BE6002A00F04E
:20268000D782057901240026EBE5002A00F0BA820579164601249CE6002A00F0CD82067989
:2026A0000124002503E6002A00F0A1820679944601246DE6002A00F0A38205794FF0010CD0
:2026C0000024155563454C7E047185D840F22E3303600120F0BD002A00F08D820579164661
:2026E0000124EDE5002A00F09082047901250026C6E5002A00F07382047901250026CFE5B7
:2027000001250024002A40F09D810224AB42047140F213816C1C0225A342057140F2E58008
:20272000651C0524AB42047140F2F8806C1C2425A342057140F2ED80651C0624AB4204710B
:2027400040F2E28001350C7D0471AB4240F2D7806C1C8D7D0571A34240F2CC80013439E67C
:2027600001260024002A00F02C8105791555B3424FF00505057140F2A68002EB060C741CC4
:202780003CE74FF0010C0024002A00F079810579155563454FF02404047140F24E810CF128
:2027A000010621E601240025B6E601240025A6E501244FF0000C002A00F0E781057902F8E6
:2027C0000C50A3424FF00205057140F2A98104F1010C76E701250024002AAED00679E0E50B
:2027E00043320020380800204432002001250024002A96D00679C0E501250026002A3FF4A7
:2028000078AD0479945574E501250024002A3FF470AD067916556CE501240025002A98D0F9
:202820000679CEE501244FF0000C9FE601250024002A00F06981067916559D424FF0040413
:20284000047180F00981561901354FE601244FF0000CBFE40725A34205712FD9661C81E7A3
:202860004FF44F7303600120F0BD0525A342057140F2518104F1010C86E740F283330360DF
:202880000120F0BD0925A342057140F27981651CCEE74FF4617303600120F0BD0D6AA342DB
:2028A0002D7805713FF649AD40F2893303600120F0BDA3420271ECD901342EE540F26D337C
:2028C00003600120F0BD40F26E3303600120F0BD40F2723303600120F0BD0324AB42047132
:2028E00040F26B812C46013590E740F2523303600120F0BD40F2593303600120F0BD4FF481
:20290000567303600120F0BD40F2573303600120F0BD40F2563303600120F0BD40F255332A
:2029200003600120F0BD08240471002B7FF48BAC40F2123303600120F0BD40F2513303602F
:202940000120F0BD4FF4547303600120F0BD40F24F3303600120F0BD4FF4537303600120FC
:20296000F0BD40F24B3303600120F0BD40F24A3303600120F0BD40F2193303600120F0BD3A
:2029800040F2493303600120F0BD4FF4467303600120F0BD4FF4527303600120F0BD0224CC
:2029A0006345047140F20E810CF1010403E740F2173303600120F0BD40F245330360012072
:2029C000F0BD0524B34204717FF67DAF741C17E64FF44A7303600120F0BD40F2163303607A
:2029E0000120F0BD4FF4517303600120F0BD40F2273303600120F0BD40F215330360012016
:202A0000F0BD40F2433303600120F0BD40F2263303600120F0BD4FF4457303600120F0BD48
:202A2000A3420271E3D90134934D2D689C426E780671CDD204F1010C88E540F24233036085
:202A40000120F0BD067921E50224AB42047140F200812E460135D1E640F22133036001207D
:202A6000F0BDA342027140F29E80013400259C420571C0F0948040F2353303600120F0BDC4
:202A8000242463450471D8D90CF1010400259C420571B6D201341025A3420571A2D90134A8
:202AA00001259C42057187D22C4405259C420571BFF470AF013424259C420571BFF460AFEF
:202AC00001340125A34205717FF650AF2C4403259C420571BFF445AF01348D7D05719C42A6
:202AE000BFF43AAF013404259C420571BFF42FAF01342425A34205717FF624AF651C04E66B
:202B00004FF0010CFFF75FBB04249D420471A3D20E7A0135ECE440F2413303600120F0BD03
:202B200040F22D3303600120F0BD0B24012B04713ED902240D7D05719C42BFF46CAF0134E4
:202B400002259C420571BFF457AF01340225A34205717FF642AF013402259C420571BFF4C1
:202B600026AF01344D7E05719C42BFF40EAF013400259C420571BFF4FEAE0134FFF7A1BB28
:202B80004FF4487303600120F0BD0225A3420571C6D901344D7E05719C42BFF497AD04F1A5
:202BA000010CFFF710BB4FF44D7303600120F0BD40F2133303600120F0BD40F2773303602B
:202BC0000120F0BD4FF44B7303600120F0BD0124C2E701245AE7012479E701246BE70124A0
:202BE000C0E74FF0010CB1E40124FFF796BB01249DE50125A7E50124FFF763BB012454E7EF
:202C00000124C7E70124FFF7E5BB01249EE7012481E5764601256BE4012441E701248FE7D8
:202C2000012423E7012458E70124FDE6012432E701247FE7012444E7012499E70124DFE453
:202C4000012456E701244EE740F28E3303600120F0BD4FF45F7303600120F0BD40F23333B6
:202C600003600120F0BD00231B78FFDE024A002313601B78FFDE00BF3808002070B90B6883
:202C80001A7B202A01D006207047D3F80EC0598A1A7DC3F818C099839A7770470320704743
:202CA0004360CA699A4210D38A6910B40260C8690C6FC01A1A44C8612344003818BF0120C2
:202CC0005DF8044B8A610B67704701F12802026000208B67704700BF2DE9F0470B7888B02E
:202CE0000C4605460E2B14D8DFE803F008180808130D2813131813080808080000242046E5
:202D000008B0BDE8F0874B78DA0930D15B09012B4DD00624204608B0BDE8F0870368002498
:202D200003F134022046C3E91E44C3E920441C845C62DC625A6708B0BDE8F087027A002A0E
:202D400000F06581837A0930002B00F05E818B78E97A415C9942D1D01B061FD4E77807F084
:202D6000FD03012BCAD0002F66D00324C7E713F0600FC3F3411200F09580012AC9D18B780B
:202D8000212BC6D1B1F80720072AC2D10168601C183108B0BDE8F04700F060BAE478002C68
:202DA00000F0A080032C14BF03240024A7E78B780668202B00F09E80222BAAD1B1F80730B6
:202DC000002BA6D1B1F80330328C338403F0010702F00102BA4291D0C3691BB1C7F10301FF
:202DE000C9B29847002F89D12B7A012B40F20B816B7B05F10C08002B00F00381AB7B18F89C
:202E0000030007F011FD2B7A012B40F2FC806B7B012B40F2F680AB7B98443C4698F801005C
:202E200007F002FD06F13403C6E91E77C6E920777762F762736762E72E68012A06F10C01CA
:202E400000F0E1806A7B012A05F10C0340F2D980AA7B069113446F4A0592B46A93F80180F4
:202E6000002C63D1F36FC6F88030F36AC6E91E44002B00F0B58006F12C0393E8030006F1C9
:202E8000240383E803000023F36205A94046FEF7F7FC0446EB69002B3FF431AF002128469E
:202EA00098472CE703F01F03012B7FF432AF8E78062E7FF42EAF05A8039200F0DFFC03AB46
:202EC00000930746E278217928463B46FEF7ACFA05283FF41EAF601C039A394600F0BEF928
:202EE00004460CE7EB69002B3FF408AF01212846984704E7B1F80720072A7FF40AAF3373FF
:202F0000B1F80730DBB2737300200E36CDE90563079000F0DDFF05A90020FEF79DFC0446D3
:202F2000002866D0002000F0DBFFE8E6D6F884A0706A544528BF544606F13409224649466A
:202F400010F03CFEF26FF767AAEB040309EB04011444F26AC6F88040C6E91D13002A42D096
:202F600006F12C0797E8030006F124044FF0000984E80300C6F82C90DBB938E0706A10F0CF
:202F80001DFEB26AB36FC6F880209B1AB367736F13447367EB6913B1002128469847F36AB5
:202FA00013B397E8030084E80300B36FC6F82C90EBB1B26A716F9342E0D21A46706A10F065
:202FC000FDFDB26FB36AF2679B1AB362736A1344736253B105A94046FEF752FC044659E788
:202FE0000023736256E700237362002452E7736AEFE7094B03A9CDE9033500F02BFC044645
:2030000090E73B78FFDE7B78FFDE1B78FFDE5378FFDE00BFA12C00007D2C00000368B3F876
:2030200020C01CF0010F18D00B46017A012918D9417B00F10C0C91B110B5817B84B01CF8B5
:20304000010091060CBF0124002401A9CDE901320394FEF701FC04B010BD082070470B78C5
:20306000FFDE00235B78FFDE0368D3F880007047F0B50468238CDB0783B022D505460020FC
:2030800016460F4600F024FFA26F42B9636AE3B11124002000F024FF204603B0F0BD9642F9
:2030A00028BF1646616F3246384610F087FDD4E91D32921B3344C4E91D32C4F88060002497
:2030C000E7E70824204603B0F0BDC4E909762A7A012A12D9697B012905F10C020FD9AB7B2A
:2030E000084D13440C3458786946CDE90054FEF7C7FB041E08BF9224CBE75B78FFDE1B7810
:20310000FFDE00BF71200000002070472DE9F04F4B6885B0CDE900020C46002B70D007F002
:20312000C3F9E568019B9D4228BF1D468146002D7BD04FF0000A56464FF00108D346D4E97F
:203140000113AB421F4628BF2F46E1B13A4609EB060010F033FDA268E368C4F804B0D21BBF
:20316000ED1B3E44DF1BA260E76022B3002F08BF4FF00008002DE2D1009BC3E9009640462D
:2031800005B0BDE8F08FABB1204609EB060250F8101B4B68D3F804A03B46D047A268E36816
:2031A000D21BED1B3E44DF1BA260E7605AB14FF0010ADBE7E768BAF1000F04D15FB9B8464A
:2031C000002DBCD1D8E723681B681B6823604FF0010A002FF3D02168F1B1CDF808B003E09B
:2031E000A36821680133A3604B6800225F6802A80123B8470028F3D12061002D9FD1BBE7EF
:203200000B681B681B68002B89D18B68002B86D1C0E900339846B2E76160002EACD0019BE1
:20322000B34288BF4FF00008A6E72E464FF00108A2E700BF08B50020FEF7A0FABDE8084021
:203240008020FEF79BBA00BF08B50020FEF7AAFABDE808408020FEF7A5BA00BF70B5C3883F
:2032600093421E4628BF1646934284B00D4612D8002400200394CDE9015600F029FE01A9E3
:203280008020FEF7E9FA044688B1002000F028FE204604B070BD8020144606F0FFFFB4FB19
:2032A000F0F202FB1044B4FA84F46409E1E707F0D3F980280BD1094A094B92E8030083E8AA
:2032C0000300002000F00CFE204604B070BD002000F006FE1024204604B070BDCC3F0100EF
:2032E000600800202DE9F04F0B780E2B89B00CD893B1013B0D2B0FD8DFE803F07118130E15
:2033000033480E0E0E0E18621D23852B04D1A64B1A78032A00F025810625284609B0BDE87E
:20332000F08FA24805F08CF9002878D10025284609B0BDE8F08F4FF08043D3F83834DB07AE
:203340005DD4994B1A78012AF0D0994999480A78012422F002021C700A700025FEF706FB3A
:20336000DBE705230DF115008DF8143007F0DEF89DF81530904E002203F01F043260032C09
:2033800000F29680DFE804F096BF766DC87803280C46C1D0884E3368002B00F0EE800022C8
:2033A0007168326098470546002860D13368002B00F0E580A378002BB8D107F0D9F8ACE7DA
:2033C000794A1378002BB1D079497A480B78002523F0020315700B70FEF7C8FA9DE7724AB8
:2033E0001378032B98D0724972480B78032423F0020314700B700625FEF7B8FA8DE76A4A7C
:203400001378022B92D06A496A480B78022423F0020314700B700025FEF7A8FA7DE7674B9B
:203420000122DA65BFF36F8FBFF34F8F7EE79DF81620062A00F03381082A00F01F8182B9E9
:203440005B495F4B09781A80890744BF02221A705B4902220DF11500FFF700FF0546062D74
:2034600003D105A8FEF7E2F90546002D41D007F0E9F852E79DF81900020707D005A9FEF730
:20348000BFF906280546F0D19DF8153013F0600F0ED19DF81630444A9DF819401278012B02
:2034A00000F0A080032B00F08D80002B00F0AD800625DCE713F0600FC3F34117D1D1DB0995
:2034C000B5D19DF81630032B00F0B280092B00F0BE80012BC5D1BDF81730012BC1D1FEF768
:2034E00045F9002800F0F180314A137823F0020313703368002B4BD007F0AEF80546002873
:203500007FF414AF59E79DF8190003A9FEF752F90446002840D09DF80C1005AAFEF76CF95F
:2035200006280546A1D19DF8152012F0600F9ED11D4B9DF80C101B78D20940F0DB809DF84F
:2035400016200B2A93D1052B70D1BDF81730FF2B00F2BD809DF817202046FEF7A5F90546C6
:2035600083E7134913480A78042422F002021C700A700625FEF7FAF9CFE60E2577E74FF0CC
:203580008053D3F83021082A08D007F051F8C4E607F04EF80025C0E6102568E7D3F834318C
:2035A000002BF2D1C2E600BF453200206808002046320020943F01006008002000700240E9
:2035C0006C08002025073FF573AFBDF81730002B7FF46EAF052A01D0200727D1204606F0A3
:2035E00067FF86E721073FF563AFBDF81730002B7FF45EAF052A01D0220717D1204606F076
:2036000085FF204607F0C2FB73E7052A01D027070CD1204606F058FF8549034602220DF1BB
:2036200015000B80FFF71AFE05461EE708251EE7BDF81730012B7FF414AFFEF797F8002850
:2036400043D07C4A137843F00203137051E77A4C2378043B012BE9D89DF81730002B38D077
:20366000012B34D1FEF7D6FC2378052B3FF441AF052372482370FEF779F93AE76E4A127825
:20368000052A4ED0042A7FF4ECAE694B1F70684901220DF11500FFF7E1FD0546DFE69DF8FF
:2036A0001830022B56D0032B3ED0012B7FF4D9AEBDF81B30002B3FF46BAF614912220DF1B9
:2036C0001500FFF7CBFD0546C9E60F25CFE60725CDE6FEF7B7FC2378042B3FF40AAF554A58
:2036E00056481378042123F0020321701370FEF73DF9FEE69DF81670002F7BD00A2F7FF400
:20370000B6AE052B92D120460192FEF77DFC4849019A03460B700DF11500FFF79FFD05466B
:20372000A3E6434A1370B2E7BDF81B30002B3FF42FAFBDF819109DF8170000F0B7FB0146A8
:2037400000283FF48EAE02780DF11500FFF786FD054684E6BDF81B30002B3FF419AF092BBD
:2037600028BF09239946FEF71FF84FF0090A0546B8B103974FF0000801E008F101086A68AF
:203780000123D2F804B02946002203A8D8470028F3D12A682B7A15681C44C244E4B2002D63
:2037A000E7D1234D27494A46284610F007FA2C71A5F802A0FDF7DAFF18B1EB7943F0200346
:2037C000EB71FDF7F1FF204B1860BDF81B20DA600020C3E9015900F07BFB1C498020FEF716
:2037E0004FF8054690B1002000F07AFB062D7FF43EAE36E6052B7FF419AF0D4902220DF1E0
:2038000015000F80FFF72AFD05462EE606F024FF802808D10E4B93E8030086E80300284638
:2038200000F05EFB65E6284600F05AFB10251EE66C0800204632002045320020943F010071
:20384000B83F0100983F010048080020D43F0100CC3F010038B505460C4606F0FDFEA842A3
:2038600007D194E80300044A82E803000023184638BD1023184638BD6008002008B1402396
:2038800003600148704700BF6C08002030B50C7A002C75D001F1090E0468002C00F0AD81D7
:2038A0006FF4AB7504EB050CBCF1140F6AD8BCF1140F67D8DFE81CF01500FA0060018B0195
:2038C0007101820157014E01E70066006600D300BF006A0066002B0069015C007A012400A7
:2038E0004901002A00F0D98104791470012B4FF00404047140F27781A44601250224DCE005
:203900004FF0010C002442B390F804E084E04FF0010C0024002A40F063810A8A9C454FEA16
:203920001222027180F07D810CF101044A8A02719C4280F0718104F1010C4A8A9C454FEAF9
:203940001222027180F063810CF101048A8A0271A34240F24D8104F1010C8A8A63454FEA07
:203960001222027162D840F26B130360012030BD4FF0010C0024002ADFD090F804E031E07F
:20398000A64689E700230360184630BD002A00F0CB8190F804C01546012485F800C091F802
:2039A00010E080F804E0A34240F2408104F1010C02F804E0B1F810E09C454FEA1E2E80F88C
:2039C00004E080F02E8102EB0C050CF1010485F800E091F812E080F804E09C4280F01C81C5
:2039E00004F1010C02F804E0B1F812E09C454FEA1E2E80F804E080F00A8102EB0C050CF194
:203A0000010485F800E091F814E080F804E09C4280F0EE8004F1010C02F804E0898A634514
:203A20004FEA112101719ED96244117040F26D130360012030BD002A00F0788190F804C089
:203A400001244FF0000E02F80EC0A3424FF0090C80F804C040F2EF80151901349DE7002A05
:203A600000F0668104794FF0010E4FF0000C02F80C4073454FF02104047140F2E180A44605
:203A80000EF10104DFE7002A00F0488104794FF0010C4FF0000E02F80E4063454FF0090427
:203AA000047140F2D2800CF1010EE0E7002A00F0378190F804C00124002502F805C0A3422E
:203AC0009EF800E080F804E040F2E28004F1010C02F804E063454FF00004047140F2D380BB
:203AE0000CF1010E02F80C4073454FF00004047140F2C4800EF1010C02F80E4063454FF053
:203B0000FF04047140F2B5800CF1010E02F80C4073454FF00104047140F2A6800EEB040CA2
:203B200002F80E4063454FF00104047140F297800CEB040E02F80C4073454FF000040471D4
:203B400040F288800EF1010CA5E7002A3FF46EAF01796AE7002A00F0F18004794FF0010EF8
:203B60004FF0000CE6E7002A00F0E48004794FF0010C4FF0000ED3E7002A00F0E38090F8DA
:203B800004E04FF0010C0024A2E7002A00F0CA8090F804E01546012419E7002A00F0D0808E
:203BA00004794FF0010C4FF0000EA5E7002A00F0C38090F804E01546012422E7002A00F0F7
:203BC000C38004794FF0010E4FF0000C9EE7002A00F0A28004794FF0010E4FF0000C81E74D
:203BE00090F804E0E4E64FF4AC730360012030BD4FF4B5730360012030BD09240471002B13
:203C00007FF46FAE40F257130360012030BD40F269130360012030BD4FF4B47303600120FA
:203C200030BD40F267130360012030BD4FF4B3730360012030BD4FF4B2730360012030BDC7
:203C400040F263130360012030BD4FF4B1730360012030BD40F25F130360012030BD4FF41B
:203C6000AF730360012030BD40F25D130360012030BD4FF4AE730360012030BD40F25B1329
:203C80000360012030BD4FF4AD730360012030BD40F259130360012030BD0422012B02710B
:203CA000A1D902249EF800200271A342F0D9013400229C420271E6D201340022A34202717E
:203CC000DCD90134FF22A3420271D2D9013401229C420271C8D214440122A3420271BED929
:203CE00014440022A3420271B4D901340922A3420271AAD901342122A3420271A0D90134AC
:203D000009229C42027196D201340A8A02719C428CD204F1010C00E60124CEE70124E5E794
:203D20000124BFE7012401E60124EEE70124E7E70124E0E70124CFE7012407E60124D0E70A
:203D40000124BFE70124B3E70124C0E70B780E2B0BD8DFE803F0080808080A0C080A0A0A58
:203D60000A08080808000020704706207047F0B54B78DA0985B00C46064611D15B09012BD5
:203D800002D0062005B0F0BD8C78002CF9D102681373036A002B39D0214698472046F1E7BA
:203DA00013F0600FC3F3411214D0012AE9D18B78072B09D0082BE4D1C2688169601C05B084
:203DC000BDE8F040FFF74ABAB1F80720182AD8D1C169F3E703F01F03012BD2D18D78062D39
:203DE000CFD103A80292FFF749FD02AB00930746E278217930463B46FDF716FB0528C0D06E
:203E0000029A3946601CFFF729FABBE71846B9E770B54FF0805286B0D2F8A830D2F8A410C6
:203E200000916FEA83436FEA93430B4A0B4E9BB20D2102A80BF08CFB02AD002404E015F88A
:203E4000013B06F8013B013402A80FF0E7FE8442F5D306B070BD00BFF03F0100AC080020F5
:203E600010B5114B53F8204023780BB9A01C10BD0020FFF703FD217899B12246C4F1010C6B
:203E800002EB0C03DCB2234620F8141012F8011F0029F5D101335B00DBB243F44073038051
:203EA00010BD40F20233FAE75840010040B1052808D8054A105C28B1044B53F820300BB11C
:203EC000FFF7CEBF00207047704001005840010072B6024A1368013313607047BC0800200D
:203EE000034A1368013B136003B962B6704700BFBC08002010B50446006830B1002107F0AD
:203F00006DFA54F8040F0028F8D110BD2DE9F043038883B0044643B1B3F5867F0CD18229A3
:203F200010D0012003B0BDE8F0834FF486730120238003B0BDE8F08300230380032003B06E
:203F4000BDE8F08303F00AF9BFF35F8F19491A4B0E6800220A601F781A70FFB2BFF35F8F78
:203F6000164D03F0FFF828680028DED0DFF85090DFF8508003E055F8040F0028D5D090F898
:203F80004A3026FA03F3DA07F5D590F8493047FA03F3DB07EFD502F0E9FB0028EBD02B68BC
:203FA000D9F80020009218464246022102F07CFBE1E700BFD00800204A3200206000002071
:203FC000041500204140000010B50D4A90F84B3082B004460133106884F84B30094A009006
:203FE000234604F12000802102F05EFB064B19782246002002B0BDE8104007F09BBA00BF3B
:2040000004150020C93F00004732002010B4094A094C1368194311602178012202FA00F06A
:2040200040EA0103DBB2237004485DF8044B07F0B3BA00BFD00800204A3200206800002003
:2040400070B582B0044602F091FB08B902B070BD04F12006304602F089FB94F84A10054669
:2040600094F8490003F03CF848B994F8483063B9002DEBD1304602F05FFB0F4B14E0012801
:20408000F6D194F84830002BF2D1002DDED00B4B0B4A1B68002584F84B50304600937E217A
:2040A000234602F001FB074B19782246284602B0BDE8704007F03EBA493200200415002026
:2040C000C93F000048320020F8B507F07FF9304B304C187007F07AF92F4B304F187007F0C1
:2040E00075F92F4A2F4B107022687B600025FF213972FD60002A42D02B4E09E091F84A00BC
:20410000F9683A72834054F8042F0B43FB60B2B392F84A3092F84910526C03F01F0343EA5B
:2041200041131F2BC6BF03F01F0331464FF0A04103F5E07342F08C0241F82350236893F8E3
:204140004A1093F8490002F087FF226892F84A3092F8490003F01F0343EA4010012104F0B0
:20416000C1FC2168387A91F8492082424FF00103C4D0FF28C2D054F8042F002AC8D10B486C
:20418000002107F02BF9BDE8F840044802F0BCBF483200206000002049320020C0080020B0
:2041A000473200200D4000000003005068000020042800D0704708B5054A1368013313605D
:2041C00002F0E0FB00B908BDBDE8084002F0C0BBD408002000B5134B83B000221A6004F068
:2041E0005FFAC0B9002004F077FA0F4B0F4A93E803000090ADF804100D48694604F0F4FE04
:2042000060B901210A4804F043FF094804F034FF03B05DF804FBFDF7A1F8E3E7FDF79EF87B
:20422000EFE700BFD4080020A4400100B1410000AC400100014B1868704700BFD4080020EB
:20424000014B1868C0097047D40800200346806A596007F0A1B900BFF0B5858C83B00446E7
:2042600017461E464DB36A2D22D182294AD14568002D62D00023009304F1180204F1140152
:20428000284601F099FD227E131E18BF012384F82030D4E90431994246D0637E0133DBB20C
:2042A0006376002A3AD0032B0ED9042384F820300023A384032003B0F0BD244B4560C0E95F
:2042C00004551B688362058301F036F93946308100F03CFE2060F0B11D4BC36323681C6461
:2042E000216991B921683046463101F03BF92368A3F84400206800F043FE6A230120A38457
:2043000003B0F0BD012003B0F0BD40230022304601F06EFDE6E7A0840220CCE7032BC4D8D5
:20432000022384F82030C3E7089B606898472369227E01332361637EB3E7032380F820304B
:204340002846089B9847A5840220B4E7041500204D42000010B5846882B01CB194F908304A
:20436000002B01DB02B010BD236A002BFAD01A68002AF7D00749097831B11B6A23B1019025
:204380009847236A01981A68002302B0BDE8104000F082BD4B3200202DE9F0479846124B78
:2043A00082B01C68DDF828A084B106460F469146656843464A463946304625B1CDF800A0E7
:2043C000A847054638B92468002CF1D10025284602B0BDE8F087B379012BF8D13A463146BF
:2043E000002000F039FBF2E7D80800202DE9F04F2DED028BA44CA54E05468BB02046884607
:2044000001F056FAC4F8A0500346307008BBA279013A032A62D9636823F07F4323F0FF0390
:20442000002B4FD06379032B00F02881208900F037FE074600284DD0D0E90F9700F01AFEC8
:20444000B9F1000F00F091808F493846C847337843B30027C22B2BD0DFF84C92384600F06A
:2044600009FE3278C32A69D0BF2A84BFA022327002212389844801F067F8D9F80010039175
:2044800008460FF0CBFB039902467F4801F0D6FC41467D4801F066F8414682B2284600F0E7
:2044A00013FF337818460BB0BDEC028BBDE8F08F384600F0DFFD337818460BB0BDEC028B88
:2044C000BDE8F08FC3232089337000F0E9FD07460028B1D13378002BE4D0BBE7039029468B
:2044E000208900F033FD0746002842D0039B0893CDE9063363794022ADF8162063BB238961
:2045000063484522022101F01FF8A27A002A40F0B08007AB00935C480DF11603002206A9E7
:2045200001F04AFC70B9089B002B2ADADFF87891584BC9F80030822333708FE70022327053
:20454000032196E7BDF81630402B28BF4023ADF81630079B0893E7E700F0EEFF4522034687
:2045600001214B4800F0F0FFCFE73378002B99D06FE7DFF83491484BC9F80030A3233370D3
:204580006CE708A9BDF81630009107F1840240493D4808EE903A08EE102AFFF7FDFE0028F6
:2045A0004ED1099009A9384801F0E0FB3B4BD3F800908246B9F1000F7AD0099B03979B467A
:2045C0002B464D4699460AE006DD2A7AD30603D51BF800202F2A08D02D68002D66D06F68A3
:2045E00038460FF01BFB8245EED10246594638460FF01CFB0028EFD1A279039F4B46511E82
:20460000A946012A1D464FF0010303FA01F300F0C180990740F1A980D9F814A0BAF1000F7F
:2046200000F0A38008AB1A49009318EE102A18EE903A1548D04799F80830590600F1C080E1
:204640003378002B7FF406AFA37D1A0758D5DFF8409099F90630002B52DB99F816301B072E
:204660004ED4DFF844900E4BC9F80030A1233370F4E60C49064801F065FB4AE721892846A5
:2046800000F0BCF9D2E600BFE00800204D3200208C090020B4400100D4400100DC08002094
:2046A000C4400100EB080020D4000020039F4D465948842101F040FB5748842101F03CFBDB
:2046C0003378002B7FF4C6AE534807F1460100F049FF80B2A7F8440020B9C123DFF844918D
:2046E0003370BBE63378002B7FF4B4AE384600F047FC337818460BB0BDEC028BBDE8F08FFC
:20470000637DD91116D1089A002ADDD0DFF80891013218BF01224023484601F069FBB9F8DB
:20472000A420D9F8A810402A28BF4022484601F085FBC5E7DDE90723934232D00133069934
:2047400044D0BDF81630DFF8D0900122324801F04FFBBDF81620B9F8A4309342B0D9D9F89C
:20476000A8102D4801F06AFBAAE75A0705D5D9F818A0BAF1000F7FF455AF180705D5D9F866
:204780001CA0BAF1000F7FF44DAF8521224801F0D3FA91E7D9F810A0BAF1000F7FF442AF4F
:2047A00037E7DFF87490B9F8A420934219D382231A4989F8063048460F2201F03FFB7FE7BB
:2047C000154A1749484600F047F939E7DFF84890BDF81630B9F8A4209A4294BF00220122A9
:2047E000B4E7D21ABDF8163006999A4294BF00220122484601F0FCFA0799B9F8A430BDF8D5
:2048000016205B1A9A4228BF1A46D9F8A8304846194401F013FB53E78C090020B440010053
:20482000E0080020D400002010B504460D486160214602F069FE94F90830002B00DB10BDFF
:20484000206A0028FBD0036A002BF8D00268002AF5D0054BC0E903340023BDE810400830A2
:2048600000F01ABBDC0800205543000038B50A4A137803B138BD094D094C0A492B600120B8
:20488000107009482360FFF7CFFF00F017FDBDE8384000F049BE00BF4B320020D80800208C
:2048A000DC080020E440010084000020014B1868704700BFDC08002000B10068704700BF56
:2048C0002DE9F041114F3C68E4B1DFF844800546002601E0246894B1294604F1180000F0CE
:2048E0004FFC0028F6D02146404602F087FF2146384602F055FE24680136002CECD13046CE
:20490000BDE8F08126463046BDE8F081380A0020780000202DE9F047DFF86890D9F8004062
:2049200064B3DFF864A005460F4616464FF0000801E02468FCB1294604F1180000F020FCA0
:204940000028F6D094F82C30B342F2D13246394604F12D000FF022F90028EAD121465046B6
:2049600002F04CFF2146484602F01AFE246808F10108002CDFD14046BDE8F087A046404683
:20498000BDE8F087380A0020780000202DE9F047DFF86090D9F8004044B3DFF85CA00646C6
:2049A0000F464FF00008251D314604F1180016B100F0E6FBA0B1BD42284607D00FF02EF942
:2049C0003946024628460FF0E9F848B92146504602F014FF2146484602F0E2FD08F10108F7
:2049E0002468002CDFD14046BDE8F087A0464046BDE8F087380A0020780000202DE9F843DA
:204A0000DFF84C80D8F80040ECB1DFF8489005460E460027294604F1180000F0B1FB10B1F8
:204A2000E38EB34205D02468002CF3D13846BDE8F8832146484602F0E1FE21464046013736
:204A400002F0AEFDEFE727463846BDE8F88300BF380A0020780000208B79012B00D0704768
:204A60002DE9F04792F90630002B82B015464EDBCB7C5B060C464AD5D1F8A070002F46D010
:204A80004B6E4BB1012B42D18A7A38460B3102B0BDE8F047FFF73EBF096E0191384694F8D0
:204AA0000AA0D4F85C80FFF771FF1F4802F08AFE064678B3B8F1120FC146C4BF4FF0130838
:204AC000C146424601990430B1440FF077F83946002706F1180089F8047000F03DFB5246AC
:204AE00004F10B0186F82CA006F12D000FF066F80E48F786314602F007FDB16B4B1CB36311
:204B0000284601F051F9B36B23F07F43B36302B0BDE8F0870649A32310222846AB7102B092
:204B2000BDE8F04701F08AB978000020380A0020F84001002DE9F04F2DED028B83B008EE0D
:204B4000101ADDF8389001929846FFF7AFFE002800F0BB800025D9F800B006462C46A345DB
:204B600008D8454512D2019B4FF03C025A55D9F800B00135631C5B4508D3454506D2019B70
:204B80004FF02F025A55D9F800B00135D6F804A050460FF043F8023427185F453FD801D1FB
:204BA000454554D3D6F80CB07C1CBBF1000F17D09BF80030A3B1D9F800A0A24509D84545A6
:204BC00007D2019A3B235355D6F80CB0D9F800A0013558460FF022F802373C1854453BD83A
:204BE000454504D9D9F80030621B9A4246D83046FFF762FE0646002856D0D9F800B0002CC3
:204C0000ADD0A34507D8454505D2019A2C235355D9F800B001350134A345ABD8A1E7019AE3
:204C2000ABEB040B08F101015019BBF1000FACBF0AEB0B030AF10003491B284A0AF088FCF0
:204C40000544454530D2D9F800309F42AAD3019A3E2353550135A5E7019AAAEB070308F187
:204C600001015019002BACBF5B440BF10003491B1A4A0AF06DFC05444545B8D9019918EE66
:204C8000100A2A4601F0DAF818EE100A282101F065F8D6B1D9F800304344C9F8003003B05D
:204CA000BDEC028BBDE8F08F002DE7D1002CF0D0822118EE100A01F03FF818EE100A08496D
:204CC0000F2201F0BBF8002EE4D14FF0FF33C9F8003003B0BDEC028BBDE8F08F0C4101005F
:204CE000B4400100014806F057BC00BFA800002038B5038804463BB15C2B0DD188290FD043
:204D000082290DD0012038BD1B48802101F026FE5C232380012038BD00230380032038BDE6
:204D200000F0EAF80546F0B900F0CAF850EA010319D0124BC9014FEAC01C41EA5061634514
:204D400075EB010313D3BCF57A7F71F1000311D34FF47A72002360460EF09EFD01460648F0
:204D600001F0FCFDD4E7064806F016FCD0E74FF4F051F4E70121F2E7440A0020E73375002A
:204D8000A800002010B5FFF755FA0C4B1968411A03D10B4BD3E9000110BD094A18604FF44C
:204DA0007A70A1FB00131468C80940EA43605168001941EBD311C2E9000110BD400A00207B
:204DC000500400200148002106F008BBA80000202DE9F043244A137883B081464BB3DFF863
:204DE0008C80D8F800702148494602F0D9FBD8F8001079B3D9E904654FF0000C03E00C68D0
:204E00008C4654B32146D1E904349E4275EB0403F5D24A461548614602F0E6FBD8F800908B
:204E2000B94514D0124B9B68019303B0BDE8F04318470F49DFF834800F68C8F80030012146
:204E40001170002FCFD0B847D8F80070CBE703B0BDE8F083B9F1000FE2D04A46034802F00F
:204E6000C3FBD8F80090DBE74C320020540A00202C410100064B10B55B6804469847C4E919
:204E8000040121460348BDE8104002F089BB00BF2C410100540A0020084970B54968054613
:204EA0001E4614468847241846EB0101C5E904412846BDE87040FFF78BBF00BF2C410100D3
:204EC00010B50B4B1C687CB10A4B5B689847D4E90423904271EB030402D30020014610BDED
:204EE000101A63EB010110BD4EF66020214610BD540A00202C410100F8B5124F124E7D6834
:204F0000A84734682CB1D4E90423904271EB030301D20020F8BD2146304602F041FB636893
:204F20000BB120469847BB6898473368002BF0D0D3E90464A847B04271EB04032CBF012074
:204F40000020F8BD2C410100540A002070B5064609480D4602F036FC044658B1002326308B
:204F60002946A68084F8243000F0F6F80348214602F0CAFA204670BDB8000020580A002099
:204F80002DE9F04190F8463013F0300F0446C3F301152FD190F82430042B13D8B0F8442072
:204FA00000F14601263000F08FF994F82430B3B3226A5200226204F108000023BDE8F0414D
:204FC000FFF76ABF2630D4E90F67FFF779FC04F10800FFF74FFF1E48214602F0E1FA1D487E
:204FE000214602F00BFC8EB3294638463346BDE8F0411847B0F8442000F14601263000F0EB
:2050000063F904F10800FFF735FF2146104802F0C7FA21460F48BDE8F04102F0EFBB0E4B12
:20502000C4E9033406F040FB0C4AA2FB0032920A40F2DD5303FB120202F6B832226204F1CB
:2050400008000023BDE8F041FFF726BFBDE8F081580A0020B800002061500000B76FA5AEDA
:20506000806830B190F82430013380F82430FFF787BF704770B110B504460830FFF7FAFE42
:205080002146054802F08CFA21460448BDE8104002F0B4BB704700BF580A0020B80000200B
:2050A000044B02E09A88824202D01B68002BF9D118467047580A002070B50288044662B1EC
:2050C00040F2B9139A4217D11B4B1B788B4217D040F2B9132380012070BD114610460BF0CA
:2050E00091F8164B186020B343F21633038240F2B91323800120EFE700230380032070BDEA
:205100000F4B1B789B07E3D50E4B0F490F4D09880F4E03F120028A5A2A820021A9740FCB8F
:2051200085E80F000B4B328819682846FFF75EF9CEE72080022070BD68320020740A0020AB
:205140006E320020BC2A00203A320020600A00203C320020B42F00208B68D1F800C04A68B4
:2051600000B5D1F80CE0C0F80CE0C0F800C0426083600B8A03828B7C83745DF804FB00BFF9
:2051800038B5102205460C460EF008FD58B92A8A238A9A4200D038BDA87CA37CC01AB0FA76
:2051A00080F0400938BD002038BD00BF2DE9F0470E1E8AB08146904639DD0346002402E0B8
:2051C0000134A64233D01F4613F8015B5B2DF7D1A6422CDD09EB04032546AA460135AE4226
:2051E00025D013F8012F5D2AF7D13349062248460EF01CFDB0FA80F04009A54288F812000B
:205200001FDD384641460DF0EDF9D0B10AF1020A09EB0A0019F80A303A2B32D098F81230A0
:205220003BB343F21643A8F8103001200CE02249062248460EF0FAFCB0FA80F0400988F80D
:205240001200272E03D900200AB0BDE8F0873246494668460EF0B2FC06F128030DEB030691
:2052600000234146684606F8283C0DF0BBF90028EAD043F216330120A8F810300AB0BDE803
:20528000F087023E761BC9D00022114604E001318E4203EB440209D010F8013F303BDDB27F
:2052A000092D02EB8204F2D90029B7D052BAA8F810200120C8E700BF38410100014800217B
:2052C00006F08CB8C400002070B582B0B8B11446028848F2FE039A420E46054603D00A4B2E
:2052E0005B6A984758B1094A2B8A1068009322462B4631460CF0D2FB204602B070BD4FF051
:20530000FF34204602B070BD7C450100740A00200C2841D9B0F5867F94BF6FF02F0C6FF071
:205320001F0C0C2936D9B1F5867F94BF0D230E2343EA0C03B0F5867F137017D96FF48673EA
:20534000C3181B0A0D385370907002230320B1F5867F16D96FF4867C8C444FEA1C2C02F8B3
:2053600000C01A440D39D81C917070470C280ED90D38B1F5867F50704FF001034FF00200CE
:20538000E8D80C2902D90D3911540130704701200023DCE74BB2CBE703014FFA83FCC0E781
:2053A0002DE9F0411C46260C14F07F484FEA06460B46154614BF01210021CEB1013124F03B
:2053C000FF07C01A02312A46FFF7A2FFB8F1000F17D0230E2B54431C16B3220CEA5402309E
:2053E00017B1230A2B5401302C540130BDE8F08134F0FF07E5D14CB9BDE8F041C01AFFF7B6
:2054000087BF76B1230C2B540130EAE7C01A0131FFF77EFFB8F1000FDBD1002CE6D0E3E7E0
:205420001846002FDDD1002CE0D0DDE72DE9F047002400EB010881461C6010461F46924656
:205440000EF0ECFB09EB0005A8452DD906464C4605E00134A119884505F101051FD9A14522
:2054600003D014F8011C2629F3D12B783D2BF0D12146324650460EF0D9FB0028E9D10136F1
:205480003444A8EB0408424626212046FBF7B8FE08B1A0EB04083C604046BDE8F0874FF04B
:2054A00000084046BDE8F087A046FAE72DE9F04F83B01F460C9B9DF834B00024013382464E
:2054C0008E4691460193B8462646A44604E0019B01349C42A44622D817F80C3007EB0C0574
:2054E000A5EB08055B4509EB0602AAEB0E00294602D00C9B6345EAD1FFF70AFF06444146B5
:2055000009EB06002A460EF059FB0134019B07EB040801349C422E44D646A446DCD930464A
:2055200003B0BDE8F08F00BF08B506F0BDF8014B188008BD2C320020024B1888013080B2F6
:20554000188070472C320020F8B504460F4616461D46AC2200210EF059FB6771A67125819D
:20556000F8BD00BF2DE9F04301220023016002710B7002680E461378017943EA81131370D2
:205580000268437911781B0103F030030B4313700268837A117803F00F030B431370036818
:2055A00082795A70038902681B0A937003680289DA70837983B00446002B00F06A810268DF
:2055C000837A151D6BB16FF0030100F10B03891A13F8012B05F8012B94F80AC06A1894456A
:2055E000F6D8E37C9807C3F3400111D594F86A702A4639460120FFF78BFE3A46804604F1D2
:205600006B0128180EF0DAFA4744E37C3D4401211A0711D5D4E910792A46C1F1030039468E
:20562000FFF776FE494680463A4628180EF0C6FA4744E37C3D440321DF0612D594F82470B2
:205640002A46C1F104003946FFF762FE3A46804604F1250128180EF0B1FA4744E37C3D449A
:205660000421980606D5C1F10501090105F8011BE37C05215A0607D5636E2A460620FFF793
:205680008FFEE37C05440621DB0907D02A46B4F850300720FFF784FE07210544237DDF07C1
:2056A0000BD52F230193A36C0093E36C2A460820FFF7FCFE237D0544082118070BD52F2348
:2056C0000193E36D0093236E2A460B20FFF7EEFE237D05440B21DA0607D5A38B2A460C20AA
:2056E000FFF75EFE237D05440C215F0607D5236A2A460E20FFF754FE237D05440E21DB0992
:205700000CD026230193D4F8943000932A46D4F898300F20FFF7CAFE0F210544637D9807C4
:2057200008D5B4F868302A461120FFF739FE637D05441121DA060BD526230193636D00931F
:20574000A36D2A461420FFF7B1FE637D05441421DB091CD0636F94F878201B01002A40F056
:205760009C80B4F87A200020120900F1010C520886461FFA8CF0F8D118B10EF00F0E43EAF9
:205780000E032A461720FFF70BFE17210544A37D1F071DD5D4F8803094F884201B01002AA7
:2057A0007ED1B4F886200020120900F1010C520886461FFA8CF0F8D118B10EF00F0E43EA7A
:2057C0000E032A461B20FFF7EBFDA37D05441B21D80607D52A46D4F88C301C20FFF7E0FDC9
:2057E0001C210544E37D1A0711D5D4E90C792A46C1F123003946FFF78BFD494680463A4663
:2058000028180EF0DBF94744E37D3D442321DB0910D0D4E90E792A46C1F127003946FFF700
:2058200077FD8046494628183A4647440EF0C6F93D442721A37EDB0612D42368EB1A3E2BED
:2058400019DCB4F8A420F2B9D4F8A81028460EF0C3F9B4F8A400AD1B284403B0BDE8F0833D
:20586000D4F890302A463C20FFF79AFD23680544EB1A3E2BE5DD0C4B0C4A002020601A6078
:2058800003B0BDE8F083FF2305F8013BB4F8A420DAE7042003B0BDE8F08343F0080360E73D
:2058A00043F008037DE700BFD40000204C410100032A40F2C9802DE9F04704460D4682B041
:2058C00090460021A82204300EF0A0F9256095F800A04FEA9A1A84F804A02B78C3F3011310
:2058E00063712A7802F00F02A2726B78A3716B88BAF1010F5BBA23817BD1082A00F2AB8022
:20590000291D8E1805EB08094E4575D804F10B000EF054F900274E45C4F81370C4F8177033
:2059200080F0A480327802F0F003F02B00F07B81711C89454FEA121302F00F025CD90D2B14
:205940005ED00E2B67D00D2A61D00E2A6FD08E18B14551D31F443C2F4ED804EBD70007F059
:20596000070390F813C00AFA03F343EA0C03C3747B1E3B2B74D8DFE813F07B0073008500CD
:20598000880092009500A200B10073007300B800BF007300CD00DA007300E2007300730053
:2059A000F10073007300F80073007300730034011801730073007300730073007300690056
:2059C0007300730073006900730073007300730073007300730073007300730073007300A1
:2059E000730073007300730073007300730073002601AF4BAF4A1A60802002B0BDE8F0870D
:205A00007378B11C0D338945F6D90D2A9DD111F8012B0D329BE77378B11C89454FEA032371
:205A2000EAD9B07800F20D10F11C0344EBE7084610F8012B81454FEA0222DDD9487800F239
:205A40000D100231024482E780207047984B9A4A1A60A520D1E7964B984A1A608020CCE7A2
:205A6000FB0700F14D81B1453FF65CAF0020C4E7082A28BF082284F86A2004F16B000EF0BD
:205A80009DF8F0E7C4E91021EDE7082A28BF082284F8242004F125000EF090F8E3E784F8FF
:205AA0009CA0E0E74AB1013A88180139002211F8013F814243EA0222F9D16266D3E752B105
:205AC000013A0A440023013911F8010F8A4240EA0323F9D19AB2A4F85020C4E7A06C0028AA
:205AE00040F0B080C4E91221BDE7E06D002840F0BB80C4E91721B6E752B1013A0A440023B1
:205B0000013911F8010F8A4240EA0323F9D19AB2A283A8E74AB1013A88180139002211F811
:205B2000013F884243EA0222F9D122629BE7D4F89400002840F0C480C4E9252193E752B1CE
:205B4000013A0A440023013911F8010F8A4240EA0323F9D19AB2A4F8682084E7606D002890
:205B600040F09480C4E915217DE7002A00F0C080013A0A440023013911F8010F8A4240EA4B
:205B80000323F9D103F00702102123F00F00914089B200FA02F2C3F3C0001B0984F878003E
:205BA000A4F87A10E26763675DE74AB1013A88180139002211F8013F884243EA0222F9D108
:205BC000C4F88C204FE74AB1013A88180139002211F8013F884243EA0222F9D1C4F890205B
:205BE00041E7002A00F08880013A0A440023013911F8010F8A4240EA0323F9D103F007027A
:205C0000102123F00F00914089B200FA02F2C3F3C0001B0984F88400A4F88610C4F8882007
:205C2000C4F880301FE70136751BA8EB0505ADB2402D88BF40250020C4F8A860A4F8A450A2
:205C40007055DAE6E36C01924FF02F0C03F800C0A36CE06C0133A36418440DF0BDFFA36CEE
:205C6000019A1344A364FEE6236E01924FF02F0C03F800C0E36D206E0133E36518440DF03B
:205C8000ABFFE36D019A1344E365ECE6A36D01924FF0260C03F800C0636DA06D0133636556
:205CA00018440DF099FF636D019A13446365DAE6D40000207C410100BC4101009441010023
:205CC000D4F8983001924FF0260C03F800C0D4F89430D4F898000133C4F8943018440DF070
:205CE0007BFFD4F89430019A1344C4F89430BAE613461021104651E713461021104689E720
:205D0000024B034A1A60822077E600BFD4000020E441010090F814C05FEAEC1C09D000B55C
:205D20008E461346D0E9251072465DF804EBFFF77DBB6046704700BFFF299ABF817101206E
:205D40000020704710B5082A28BF0822144682720B300DF033FF204610BD00BF037D818336
:205D600043F0100303750120704700BF037DC3F3C0021B0702D5036E0B60C26D10467047C5
:205D80000B782F2B10B5044603D111F8013F2F2BFBD0216608460DF041FF237DE06543F0AB
:205DA0000803237510BD00BFC37C416643F04003C3740120704700BF8446407DC01115D04D
:205DC00010B411B1DCF874400C6012B19CF87810117013B1BCF87A201A80019B1BB1019A3A
:205DE000DCF87C3013605DF8044B7047704700BFA3F1100CBCF5FE6F02D8B1F5801F01D31E
:205E00000020704790F815C04167003A18BF01226CF07F0C80F87820A0F87A3080F815C0EC
:205E20000120704711B1D0F8A8300B60D0F8A83013B1B0F8A400704718467047402A28BFF0
:205E40004022C0F8A810A0F8A4201046704700BF2DE9F04105F0A2F9FEF7BCF907F0CAFE08
:205E600005F0EEFA00216648664FDFF8EC81664D664E674C05F0B2FA00F008FC0CF05CFD79
:205E800009F084FB05F092F905F0A4FB614B1B6898477B689847D8F804309847AA79EB793C
:205EA00003EB022333802368022B39DC5A4B29686A6819605A605948002105F08FFA4FF095
:205EC000FF300AF0C9FF2368022B054613DC05F09BF9FEF7CBFC5248FEF70CF80CF054FDBA
:205EE00005F0B4FA0446E4B20CF056FD002CF7D105F090F9F4E74B4A4B494C4805F0A6F932
:205F00004B4805F0A3F92368022BE0DD284601F0A1FB2368022BDADD0A2005F04BFBD6E75C
:205F2000404A4149414805F091F9424805F044FB2368022BBADD3B4A3B493C4805F086F937
:205F40003D4B3E48196805F081F92368022BADDD344A3549354805F079F9D8F800103848C1
:205F600005F074F92368022BA0DD2E4A2E492F4805F06CF93968334805F068F92368022BA0
:205F800094DD284A2849294805F060F92E484AF6CD3105F05BF92368022B87DD214A2249FF
:205FA000224805F053F929481A2105F04FF92368022B7FF77BAF1B4A1B491C4805F046F994
:205FC0003188234805F042F92368022B7FF76EAF144A1549154805F039F91E4805F036F958
:205FE0002368022B7FF762AF284601F043FB2368022B7FF75BAF0A2005F0DCFA56E700BF9C
:206000000C01002010430100B00C00202E3200202C010020D8430100BC2F00201C020020F1
:2060200030480100004201000842010010420100E4420100204201007C450100584201001F
:206040006842010074420100804201009C420100BC420100CC420100FC4501002DE9F043A3
:206060000D468B6892F82C9083B00646506BD3E90078144601F094FA686805F0E7FAA96896
:206080001C4801F0BBFB1C48294601F0B7FB636B1B6813B30023A38505F006FB174BA3FB27
:2060A0000023C11A03EB51039B08C3EBC303C11A134B144A1B68009304F10C00234600F082
:2060C000F3FA3FB14A46314640463B4603B0BDE8F043184703B0BDE8F08304F10C0000F02F
:2060E0002BFB2146084801F05BFA2146074801F085FBE6E7D8000020F0000020254992245D
:206100000415002011610000E00A0020E400002010B32DE9F047436B1D6886B00446C5B18D
:20612000686805F0A9FA7C490C2005F01FF80121072005F00FF800F0B1F900280DDAAB68F9
:206140003BB105202246294606B0BDE8F047FFF785BF06B0BDE8F087704704F09DFF6F4FB4
:2061600090F802807B68039304F096FF064604F09DFF039B01463046984705F007F8BB69E5
:2061800003930646984700282DD1002E64D1D7F81C90C84738BBBB681E4604F087FFB04740
:2061A00000286ED002281ED0AB68002BD1D00420C8E707F051FD6FF028031E1A03E007F0CE
:2061C0004BFDC64202D5C8470028F8D0C847002872D03B69032105A89847032803D19DF838
:2061E000163043453ED0AA68002AB2D094F82D104B1CDBB2052B84F82D301DD8127A94F832
:206200002C00904224D2012B88BF1F267CD905F04BFA434AB0FBF6F112680092414A01FB91
:206220001601234604F10C0000F03EFA686806B0BDE8F04705F004BA94F82C300133DBB2F7
:20624000002184F82D1084F82C30127A9A4216D822462946012077E7BE6804F027FFB047A9
:2062600000289FD1AB68002B3FF473AF94F82C300020013384F82D0084F82C3062E70726C0
:20628000C5E707F0E9FC6FF0180AAAEB000A04E007F0E2FC1AEB000F02D5C8470028F7D0B4
:2062A000039B9847002884D1C847002881D17B69984700283FF47DAFA96800293FF449AFAC
:2062C00094F82C3001330022DBB284F82D2084F82C300A7A9A4203D822462946022033E704
:2062E00005F0E2F9104BA3FB0023C21A03EB52030B4A9B0812680092C3EBC303C11A094AED
:2063000004F10C0023468FE70B1D0126DBB206FA03F35E1E7BE700BFB00C0020D843010036
:206320000415002011610000254992242DE9F041064682B00D200F4604F020FF054601F0F8
:20634000CBF901210B2004F005FF454B1C6814B916E02468A4B1201D294601F0CDF80028F2
:20636000F7D0606B01F036F907281EDD002E57D0012206213846334602B0BDE8F0411847C4
:20638000384801F01FFA04460028EFD02946201D01F0ACF8002304F130023148A385626351
:2063A0002363214601F0B0F8DBE72F4801F00AFA054600283FD02D4801F004FAA860002813
:2063C00035D005F01BF9686068B30520D5F8088004F0C6FEC8E9006710F0FF0006BF082393
:2063E00088F8083088F80800606B294601F08CF8636B1B689D4213D194F82D30012B28D984
:206400001F2505F051F91A4BB0FBF5F11B68009301FB1501174A234604F10C0000F044F9E3
:2064200002B0BDE8F081A968104801F0E7F90E48294601F0E3F9606B01F0CCF8002895D1BA
:206440002146074801F0ACF82146064801F0D6F98CE70333DBB201259D40013DD1E700BF8E
:20646000E00A0020E4000020F0000020D8000020041500201161000008B5054801F090F9D7
:20648000044801F08DF9BDE80840034801F088B9F0000020D8000020E400002010B50121DC
:2064A0000B2004F057FE024BBDE810405B68184748430100014B9B68184700BF484301007F
:2064C000014B1B6A184700BFD8430100014B5B6A184700BFD843010010B50D4B82B01B6894
:2064E00098470C4B04469B6A01A91920984701280BD0002C019BB8BF1524802BD4BFC4EBEC
:206500000300C4F1800002B010BD002002B010BD48430100D8430100FFF708BF30B50D4C82
:2065200083B0A56A69461920A84748B901A90420A84738B101F0C8F8FFF79EFF236A9847EB
:2065400003B030BD0199E36A21F00201019104209847EFE7D843010030B583B004F0A0FD70
:20656000032801D103B030BDFFF7A4FF0028F9DB0D2004F003FE224900F0BEFF08B30C20C8
:2065800004F0FCFD1E4900F0B7FF04460028E9D101F0ACF80546C8B1072004F0E1FD00285B
:2065A000E0D002238DF804308DF8054004F074FD144B8278DB688DF80620032101A898472B
:2065C000D0E704F0E3FD0028D9D1CBE701F0B4F8072004F0C5FD18B90B4B9B689847C1E781
:2065E00002238DF804308DF8055004F055FD054B8278DB688DF80620032101A89847EBE7E7
:20660000B00C0020D8430100FC450100F8B5038805462BB14A2B14D1882916D00120F8BD1A
:20662000174B1C6834B1A168201D00F097F92468002CF8D1134B01221A704A232B80012004
:20664000F8BD002303800320F8BD0D4B1C68002CF3D0231D9A4205D02468231D002CECD097
:206660009A42F9D10648084E214600F099FFD4E90523376832600BB1E06998473760DCE78D
:20668000C00B00204E32002004150020034A044B044800211170196004F0A0BE4E32002041
:2066A000C00B0020FC00002070B582610D4A04461078E361049B636130B9A1600A48214658
:2066C000BDE8704000F020BF084D094B2E682B60201D00F043F92E6021460348BDE87040CE
:2066E00000F012BF4E320020C00B002004150020FC00002070B50C4B1B7804462BB9214655
:206700000A48BDE8704000F0FFBE094D094B2E682B60043000F02CF92E6021460348BDE82C
:20672000704000F0F1BE00BF4E320020C00B002004150020FC00002010B50A4B1B78044674
:206740003BB9C0E9033321460748BDE8104000F027BF043000F01EF921460348BDE8104003
:2067600000F01EBF4E320020C00B0020094B1A7842B9094B01E0984209D01B68002BFAD17F
:20678000012070470069B0FA80F0400970470020704700BF4E320020C00B002010B504466E
:2067A000C0B20CF095F80A2C01D0204610BD0CF05FF8204610BD00BFF8B588B10F46461EC0
:2067C000002500E0013516F8014F20464CB1AF4207D00CF07DF80A2CF4D10CF049F8F1E774
:2067E00005460CF045F82846F8BD00BF10B5FDF721FD0B4B1A68D2E9003192680B44191A1C
:2068000052B1D2E9003423441B1A9268994228BF1946002AF5D14318024A136010BD00BF39
:20682000C80B0020C40B00202DE9F843038805465BB3592B2CD187292FD0822920D12C4FFA
:20684000DFF8B4803C684FF00009CCB1002603E0A3682646A3B11C4620460AF035F80028D9
:20686000F6D0E0682246882104F064FE03464046002B2AD004F090FEA3682646002BEAD1D0
:2068800059232B800120BDE8F883194A1360F7E7002303800320BDE8F883154F39680020CE
:2068A00019B9EDE789680120D9B1CB689342F9D000B139608B68002BE2D0D868904207BFD3
:2068C0009B688B6019469B68F5E7E360A3686EB1B3603B68C4F808902BB1FFF787FF3C6819
:2068E000B3E73960CCE7034A1360C9E73B60F1E7C80B0020C40B00200C01002010B50446B1
:20690000104804F049FE1049E3680A684BB142B194420FD0134601E09C420BD09B68002B09
:20692000FAD10A4BA2601B68E3600C60BDE81040FFF75CBF054B1B68E360BDE81040FFF7FC
:2069400055BF00BF0C010020C80B002004150020014804F021BE00BF0C01002010B50446F4
:2069600009F09CFF2046BDE81040FFF7C7BF00BF10B5044609F09AFF2046BDE81040FFF7FB
:20698000BDBF00BF024B1868003818BF01207047C80B002010B5124B19688142044614D081
:2069A0000B462BB19A68A24206D01346002BF9D10023C4E9023310BDA2689A6049B1FFF7DA
:2069C00015FF0023C4E9023310BD82681A60002AF5D1044B00221A600023C4E9023310BDC0
:2069E000C80B0020C40B0020014B1888704700BF2403002000283ED0037A022B30B410D068
:206A00000378022B15D00379B3B10024C37913F0030318BF012301B10C6002B1136030BC75
:206A20007047C579447A037965B90CB9012BF2D0DBB100231C46EEE7447A14F0030418BFD0
:206A40000124E3E7C4B1032D37D1032C2ED0022C24D143BB022D2DD00123032D24D1A4F142
:206A60000204B4FA84F46409D5E7023C012C8CBF00240124CFE770474BB9022D08BF012337
:206A8000EAD1A4F10304B4FA84F46409C3E7032D01D0022D02D123461C46BCE7002BC8D12D
:206AA000022DDAD1EDE701230024B4E7002BC0D10123D4E701231C46ADE7022DC7D1002B9E
:206AC000F1D1022C4FF00103DBD11C46A3E700BF30B500230B608B80437DDB075CBF0123CD
:206AE0000B70037E012B83B00D46044623D901AA694604F11000FFF77DFF009B0BB1022355
:206B0000EB70019B0BB102236B70E37D03F00303022B03D0032B14BF00230823AB70637E1E
:206B200003F00303022B03D0032B14BF002308232B7103B030BDC37D13F0030309D0437EEE
:206B400013F0030305D0C38B828B9B1AB3FA83F35B092375CBE700BF02280CBF0123072374
:206B60000B441A78FF2A184603F1FF3303D18142F7D1012070470020704700BF00B583B0D2
:206B80006946FFF7A5FF9DF800309DF801209DF802009DF803100233134403449DF8042066
:206BA0009DF805000B441344184403B05DF804FB4378827890F800C0DB00120102F0100243
:206BC00003F0080313430CF0070290F803C0134302794FEA4C1C0CF0200C920143EA0C03A8
:206BE00002F0400213430B704379827990F809C003F00103520043EA8C1302F0020290F8F5
:206C000007C01343027A4FEA8C0000F00C001201034302F0300213434B70704770B582B07E
:206C200004460D466946FFF753FF04F110002946FFF7BEFF9DF80030012B04BFA37EAB70A9
:206C40009DF801300CBF03200220022B06D1A38B2B54A28B431C120AEA5402309DF802609E
:206C60005EB1731E2344291893F800C001F801CBA34203F1FF33F7D130449DF80330022B80
:206C800006D1E38B2B54E28B431C120AEA5402309DF8046056B1F31D23442918073413F8DA
:206CA000012901F8012BA342F9D1304402B070BD02784378C2F3C00002F0070C4870C2F367
:206CC000401081F800C0C870C2F3001C03F00100C2F3801281F802C00A71C3F3400CC3F379
:206CE00001124871C3F381009B0981F806C0C8710A724B72704700BF012943DD2DE9F04135
:206D000086B00F4603A914460546FFF7D1FF0B4603CB9DF811201B882061616123836AB343
:206D2000AE1C03A802AA01A9FFF764FE9DF81380B8F1000F43D0029B002B31D1B8F1020FB9
:206D4000A38367D0B8F1030F4DD09DF81580B8F1000F2CD0019BBBB9A38BE383B8F1020FC2
:206D60004DD0B8F1030F31D0701B3B1A8742C4E90E6300DA002006B0BDE8F081AB78A37671
:206D8000EE1CCEE700207047727816F8023B03EB0223029A9BB2E383002ADFD1A383DDE702
:206DA000727816F8023B03EB02239BB2C6E71E4904F1080000F09AFBA4F81E80D4E71A4950
:206DC000204600F093FBA4F81C80BEE706F10800034604F1080213F8011D02F8011BB34277
:206DE000F9D10646C0E706F108000346621E13F8011D02F8011FB342F9D10646A5E70A49E1
:206E000004F1080000F072FB7378237216F8023B6372A9E70449204600F068FB7378237064
:206E200016F8023B637090E75443010030B591B004F022F9044604F033F96A460146204629
:206E4000FFF75AFF00283ED0044604F0FBF8D0B39DF810100B2004F07DF99DF813100720D0
:206E600004F078F99DF817308BB1BDF81C50FFF7BBFD854205D0BDF81C204FF6FF739A42A6
:206E800021D19DF817006946FFF766FEB0B102A90C2004F06BF99DF815303BB14FF6FF7140
:206EA000062004F057F9204611B030BD9DF81A10062004F04FF9204611B030BD69460D2043
:206EC00004F054F9E3E74FF0FF34ECE7F8B505460B2014460E46A84700232074A37496B38B
:206EE000E37463750820A847002701232376A07567740620A847A076FFF776FDE083092058
:206F0000A84701280CBF3B4603236376FFF76CFDA0830A20A84701281AD066B90323E375C3
:206F2000637E022B0CD0E37DA3F10203B3FA83F35B092375F8BD0223E375637E022BF2D14C
:206F400001232375F8BD0720A8476675E074C9E7E775E5E730B591B00546FFF745FD4FF6B5
:206F6000FF74A0423AD04022002168460CF04EFE04F00CF96A4601461A48FFF7A7FF04F057
:206F800005F918B3ADF800400C2004F0F7F8014602A800F0ABFA04F06FF80E9004F080F849
:206FA000034668460F93FFF7E9FD044615B9204611B030BD04F016F880B104F06DF801465D
:206FC0006846FFF72BFE204611B030BD0D2004F0D5F80146684600F089FAD5E74FF0FF344C
:206FE000E5E700BF61B100000120FFF7B3BF00BF0020FFF7AFBF00BF0649074A074B9B1AC2
:2070000003DD043BC858D050FBDC09F01FF8FAF76BF90000B04A010008000020300300205F
:20702000FEE7FEE7FEE7FEE7FEE7FEE7FEE7FEE7FEE7FEE700F01F0301219940C0F3471047
:2070400000F068B808B501F0B3FC00B108BDBDE8084001F075BC00BF30B583B0022300251D
:2070600001F01F018DF8063012F00C03ADF80450144641EA401508D0042B26D0082B28D038
:207080000C2B04BF03238DF8043014F0030306D0022B16D0012B04BF03238DF805300F4AFC
:2070A00001A9284601F08EFC230604D4284601F089FD03B030BD0121284601F013FD03B073
:2070C00030BD01238DF80530E9E701238DF80430DBE702238DF80430D7E700BF3570000076
:2070E00001F01F0141EA40101F28CABF054B4FF0A04300F01F00D3F8101521FA00F000F0C8
:2071000001007047000300500146014800F0FCB9CC0B002070B50C4B1C689CB105460E464C
:2071200001E0246874B1237AAB42FAD1E36816EA0301F6D063682846002BF2D098472468C2
:20714000002CF0D170BD00BFCC0B0020024B00221A60FFF777BF00BFCC0B0020EFF3108022
:2071600072B6704780F31088704700BF10B51B4A1B4C00234FF0010C40FA03F1C90713D5C9
:207180009178B9B1117892F801E001F01F0141EA4E111F29C6BF01F01F01A6464FF0A04EF6
:2071A0000CFA01F1CEF80C150133042B02F10302E2D110BD117892F801E001F01F0141EAE5
:2071C0004E111F29C6BF01F01F01A6464FF0A04E0CFA01F1CEF80815E6E700BF844001002D
:2071E0000003005010B51B4A1B4C00234FF0010C40FA03F1C90713D59178B9B1117892F8D0
:2072000001E001F01F0141EA4E111F29C6BF01F01F01A6464FF0A04E0CFA01F1CEF8081520
:207220000133042B02F10302E2D110BD117892F801E001F01F0141EA4E111F29C6BF01F026
:207240001F01A6464FF0A04E0CFA01F1CEF80C15E6E700BF84400100000300500F4A10B455
:207260000F4C02F10C0C03201378517803F01F0343EA41131F2BC6BF03F01F0321464FF011
:20728000A04103F5E0730332944541F82300EBD15DF8044B0F20FFF7A5BF00BF84400100EB
:2072A0000003005010B504460F20FFF79BFF2046BDE81040FFF75ABF10B50948FFF71AFA23
:2072C000084800F0CFFB48B1064C037A5B0801460372204600F092FB0028F6D110BD00BF5F
:2072E000900C00201C0100200146014800F0E8BB1C01002080B110B50446FCF79BFF2368DD
:20730000C01AB0F5963F05D2207A032894BF0020012010BD002010BD0020704770B50546E8
:20732000144689B1022907D006290CD129462B48BDE8704000F0C4BB2848294600F0C0FB7B
:207340000646002832D170BD2448294600F0B8FB0646002835D0FCF76DFF337A306023448F
:20736000102BA8BF10233372FCF764FF3368C01AE401B0F5963FA4B208D2337A042BB38822
:2073800034BF19220A222BB9B48070BDB3881922002BF9D0C2F16400114904FB02F203FB82
:2073A0000022A1FB02325209B28070BDFCF742FF337A30602344102BA8BF102333720C348F
:2073C000D2E7334605480822294600F095FB06460028B8D047F6FF73C380BCE71C01002047
:2073E0001F85EB5138B50546042003F0B9FE29460446224824B200F063FB40B3B0F906209E
:2074000047F6FF739A422DD004EB84035B001C4C5A2112FB013284FB0234D217C2EB64142D
:20742000838824B2C48003B138BD04F15A0212B222EAE2721E2A134BA8BF1E22D201A3FB4B
:207440000232120902F5807292B2828038BD034608220A48294600F04FFB0028E4D047F632
:20746000FF73C3808388C480002BDDD147F6FF739C42DAD14FF48072E7E700BF1C010020F8
:207480001F85EB518988888838B5094800F0EAFA60B1074D04462146284600F0B3FB214650
:2074A000284600F0ABFA04460028F4D138BD00BF1C01002000B5002183B0084800F07CFAE2
:2074C000074B084A1B680093074800234FF4E131FFF7EAF803B05DF804FB00BF1C01002050
:2074E00004150020B9720000900C00200B684A6842600360704700BF08B508220CF04EFBA0
:20750000B0FA80F0400908BD0368DBB110B4002400E0134699420FD01A681C46002AF8D19A
:2075200000230B600368CBB11A461B68002BFBD111605DF8044B70470A686CB122600022FD
:207540001A60EDE700230B6003684BB11A461B68002BFBD1116070470260F0E70160E8E77D
:207560000160704730B405684DB12B46002400E01346994207D01A681C46002AF8D10D60E0
:2075800030BC016070470A683CB1226000221A6005680D6030BC016070470260F6E700BF8E
:2075A00003689BB110B4002400E0134699421A6805D01C46002AF8D15DF8044B704734B12C
:2075C000226000221A605DF8044B704770470260F7E700BF03682BB100201B680130002B36
:2075E000FBD170471846704730B479B1036843B1002500E023469A4217D01C681D46002C42
:20760000F8D10B6813600A6030BC7047056845B12B4600E023469A4210D01C681946002CC6
:20762000F8D11560026030BC704725B11068286000201860E5E714680460F9E739B11468A7
:207640000C6000211960056815600260EBE711680160F6E700B58BB00246282168460BF02D
:2076600037F86946024803F0F1FD0BB05DF804FB0C41010008B3F8B50025114F0446012646
:2076800065B1EB070FD52178384603F0DFFD082E12D0013501360134002DF2D12178384657
:2076A00003F0D4FDF5E72E2003F084FF2178384603F0CCFD082EECD1F8BD024803F0C6BD2B
:2076C0006C4301005C43010008B503F0EDFF014B187008BD4F320020034B197806204A1C19
:2076E0001A7003F037BD00BF4F320020F8B5FCF7A1FD104E0746344600250C2003F03EFDD7
:207700002146FFF7F9FE103420B90135102DF4D10020F8BD062006EB051503F021FD2B7B03
:207720008342F5D1A868381AB0F5206F8CBF00200120F8BDB80C002070B5184E00243546D9
:207740000C2003F01BFD2946FFF7D6FE103510BB0134102CF4D10F2406EB041C64465CF831
:20776000100DDCF80410DCF80820DCF80C3066450FC4F3D1062003F0F3FC3073FCF75AFDC1
:2077800003460C20B36003F0F9FCBDE8704001460248FFF7ABBE002CDED1EBE7B80C0020A3
:2077A00010B504464288406800210CF02FFA23886288A06803FB02F2BDE8104000210CF061
:2077C00025BA00BF30B44588ADB14368002202E00132AA420CD0194601330C78002CF7D147
:2077E00001230B700588806802FB050030BC7047002030BC70472846F8E700BF10B4448871
:2078000082685CB18A420ED0B0F800C0002301E0914209D00133A3426244F9D14FF0FF30B8
:207820005DF8044B704700234268D15C0029F5D00020D0545DF8044B704700BF83688B42EF
:2078400008D84288008800FB023081422CBF00200120704700207047418849B143680020BE
:20786000194413F8012B02B901308B42F9D170470846704738B50D4B0D4D1C68002818BF13
:2078800005463CB1211D2846FFF736FE28B92468002CF7D14FF0FF3038BD064A064B90687D
:2078A000201A801003FB00F038BD00BFE80D00205443010030010020ABAAAAAAF8B50F4BAE
:2078C0001C68C4B10E4F0F4E0F4D002004E0211D05F048FB24686CB1B368E31A9B1005FBB3
:2078E00003F3FB5C002BF5D10028F0D1201D2468002CF1D1F8BD2046F8BD00BFE80D002006
:20790000D80D002030010020ABAAAAAA2DE9F84F234CDFF8A0B0DFF88CA0DFF88C90054634
