:020000040000FA
:201000000000042041550000695500006B5500006D5500006F55000071550000000000004C
:20102000000000000000000000000000735500007555000000000000775500007955000084
:201040000D770000296D000025F600007B5500007B5500007B550000957300007B55000013
:20106000DDC500007B5500007B550000197800007B5500001D7700007B5500007B55000099
:20108000259500007B5500007B5500007B5500007B5500007B5500007B5500007B550000E6
:2010A0007B5500007B5500007B5500007B5500007B5500007B550000000000000000000050
:2010C0007B5500007B5500007B5500007B5500007B5500007B5500007B5500000D900000C3
:2010E0007B5500007B5500007B55000000000000000000007B550000000000007B550000E0
:201100000000000000000000000000000000000000000000000000000000000000000000CF
:201120000000000000000000000000000000000000000000000000000000000000000000AF
:2011400000000000000000000000000000000000000000000000000000000000000000008F
:2011600000000000000000000000000000000000000000000000000000000000000000006F
:2011800000000000000000000000000000000000000000000000000000000000000000004F
:2011A00000000000000000000000000000000000000000000000000000000000000000002F
:2011C00000000000000000000000000000000000000000000000000000000000000000000F
:2011E0000000000000000000000000000000000000000000000000000000000000000000EF
:2012000001F0FF01102A2BDB10F0070F08D010F8013B013A8B422DD010F0070F42B3F6D194
:20122000F0B441EA012141EA014122F007047FF000070023F0E80256083C85EA010586EA41
:20124000010685FA47F5A3FA87F586FA47F6A5FA87F68EB9EED1F0BC01F0FF0102F007023C
:2012600032B110F8013B013A83EA010313B1F8D10020704701387047002D06BF354603389F
:20128000073815F0010F07D1013015F4807F02BF013015F4C03F0130F0BC0138704700BF63
:2012A00010B5054C237833B9044B13B10448AFF300800123237010BDE40200200000000086
:2012C0003046010008B5034B1BB103490348AFF3008008BD00000000E802002030460100C1
:2012E000A3F5803A704700BF174B002B08BF134B9D46FFF7F5FF00218B460F461348144AA7
:20130000121A12F039FA0E4B002B00D098470D4B002B00D098470020002104000D000D4860
:20132000002802D00C48AFF3008011F00BF92000290003F027F811F0F1F800BF000008002C
:20134000000000000000000000000420E4020020E8340020000000000000000000B585B03D
:201360000346002101AA44F20100CDE90111039300F004F805B05DF804FB00BF72B6094B93
:20138000D3F8F030DB0700D500BEBFF34F8F0549054BCA6802F4E0621343CB60BFF34F8F44
:2013A00000BFFDE700ED00E00400FA05014B02481B68184700030020E83A01000378052B51
:2013C00002D0094B1B681847084BD3F88424D3F88034DBB2002BF4D1054BD2B2052A08BF79
:2013E0001846014B1B6818470003002000700240E43A0100012803D0022809D020B17047E6
:20140000054B06481B681847034B05481B681847014B04481B68184700030020DC3A01001B
:20142000E03A0100D83A01002DE9F04F89B0002504460E4601929846049500E00135626843
:201440000123D2F804902146002204A8C8470028F4D18DF80E00069085B3814682460BE0FE
:201460009DF80E306768023BD7F804B0D8479DF80E309A44554521D960680123D0F804B03E
:201480000DF10E02214606A8D84760680123D0F804B00DF10F02214606A8D8479DF80F308B
:2014A000B3424FF00002214606A8D9D1019B4B4508D009F101095FFA89F9D1E7052009B0BE
:2014C000BDE8F08F129A9DF80E30136088F8003088F801606268023B556808F10202A847B5
:2014E000002009B0BDE8F08FF0B5054683B03B4807F0BEF8044610B1204603B0F0BD38494A
:20150000384A394B08701060014648221860374812F032F936484822214612F02DF9002D64
:2015200053D095E80700334B83E80700002846D0002005F0F5FC08B1852843D12E4C237A3F
:20154000002B48D0013BDBB204F10C024FF0030E6568274E254F1EFB032E04F1090C9CF88E
:201560000110D9B19CF802000CF10103013903440CEB000253FA81F112F8013B13F0800F28
:2015800003F00F000ABF03F00F0307EBC00306EBC30391421C6028685860EDD10CF1030CAE
:2015A000F445DCD10B238DF804302B68124801A99847044600289FD007F098F89CE70F4AA4
:2015C0001A60B5E7FFF7CAFEB8E70A4B0B4A1D72C3E90025ACE76568E4E700BFBD130000D4
:2015E000B13400209C030020A00300200C0300205403002000030020143B01006D190000C5
:2016000010B507F093F968B107F098F9044648B9064805F099FC034628B1FFF79FFE2346A0
:20162000184610BD0823184610BD00BFD43A010007F066B807F08EBE4FF0804303E0D3F853
:201640003824D10707D5D3F838249207F7D5024B02481B681847704700030020FC3A010064
:2016600000B5054B83B082221B688DF8042001A8984703B05DF804FB000300202DE9F04367
:20168000077A83B0002F59D007F1FF3E5FFA8EF300F1090C00F10C024FF0030E304D314EDE
:2016A00061461EFB032E4C780022944201EB020319D091F8028013F9089013F80830B9F107
:2016C000000F0BDB03F00F0305EBC3031B680132002BEAD0112003B0BDE8F08303F00F03BE
:2016E00006EBC303F2E703318E45DCD100241C4D1C4E224602EB420262445378D3B14FF0E2
:20170000000E7346917813440EF1010E5F56595C002F01F00F03B4BF06EBC30305EBC30318
:20172000186041680968596051785FFA8EF39942E8D8077A0134E2B29742DBD80A4A13687B
:201740001BB11A681368002BFBD1106043680B228DF804201B6801A9984703B0BDE8F08301
:20176000540300200C0300209C030020024B1878003818BF01207047B0340020030710B56D
:20178000044604D52046BDE8104007F055BE07F06BFA204607F0A8FE2046BDE8104007F010
:2017A0004BBE00BF07F016BE014B1868704700BF9C03002030B50F4B1D68A5B12C7AA4B180
:2017C00000232A469C4603E05FFA83FC64450CD992F809E0864503F1010302F10302F3D159
:2017E00009B181F800C0284630BD2B681D68002DE4D1F8E79C030020436811461B6818471F
:2018000000F00F03082B0AD802064CBF054A064A02EBC303186810B143681B68184710204E
:20182000704700BF0C0300205403002038B5094B1C6864B1054602E023681C683CB16368BE
:2018400020461B68294698470628F5D038BD062038BD00BF9C03002038B504460D4607F04F
:20186000DBF818B1054B1B78022B01D0082038BD29462046BDE8384007F0DEB8B13400204A
:2018800038B504460D4607F0C7F818B1054B1B78022B01D0082038BD29462046BDE838404F
:2018A00007F05AB9B134002070B543689B6882B006460D46144623B19847062801D002B0B7
:2018C00070BD1CBB337AAB4225D9093605EB450535446E78BEB13246234600E06A789A42A6
:2018E00016D9AB782A19D05C030706D4019007F0BBF9019807F0F8FD0198013407F09CFD64
:20190000E3B29E42EAD8002002B070BD0720D6E700231B78FFDE6378FFDE00BF70B54368D3
:20192000DB6805460C4603B198472B7AA3421AD9093504EB44042C4466789EB10025324608
:201940002B4693420BD2A37862190135D05C07F041FDEBB29E4205D962789342F3D3002344
:201960001B78FFDE70BD00235B78FFDE2DE9F04103780546852B00F2D280DFE813F04902E1
:20198000CB01D2006502A102F000F700D000110124013701D000D000D000D0004A01D0001E
:2019A000D000D000D000D000D000D000D000D000D000D000D000D000D000D000D000D00027
:2019C000D000D000D000D000D000D000D000D000D000D000D000D000D000D000D000D00007
:2019E000D000D000D000D000D000D000D000D000D000D000D000D000D000D000D000D000E7
:201A0000D000D000D000D000D000D000D000D000D000D000D000D000D000D000D000D000C6
:201A2000D000D000D000D000D000D000D000D000D000D000D000D000D000D000D000D000A6
:201A4000D000D000D000D000D000D000D000D000D000D000D000D000D000D000D000D00086
:201A6000D000D000D000D000D000D000D000D000D000D000D000D000D000D000D0005E01D7
:201A800086007D012B020E02F000734B734F5A687349186890473C68002C00F07482704D4D
:201AA000636820461B682946984723681C68002CF6D1DFF8BC81D8F804300BB10D20984742
:201AC0003D6875B12E7A46B10024214628460134FFF724FFE1B28E42F8D82B681D68002DDD
:201AE000F0D101F0B1FB5F4B1B68002B00F0638201205D4E06F0EAFE3278931EDBB2062B98
:201B000000F249825949CB5C13B105F0EFF93278022A40F0408206F055FF01233370BDE820
:201B2000F081514E3278931EDBB2062B40F2F481082A01D106F046FF4D4B5B680322327074
:201B40000BB102209847454B1C6844B1636820461B682946984723681C68002CF6D13E4B32
:201B60002946D3E90002BDE8F041104790F902308278002BB4BF3F4B374B02F00F0203EBBB
:201B8000C203D3E90002294690470028C7D0A8780207C4D00307C2D4BDE8F04107F036B8A5
:201BA000334B5B680BB1082098472C4B1C68002CB5D0636820461B682946984723681C6864
:201BC000002CF6D1ABE72A4B5B680BB109209847224B1C68002CA2D0636820461B682946D2
:201BE000984723681C68002CF6D198E7204B5B680BB10A209847194B1C68002C8FD0636854
:201C000020461B682946984723681C68002CF6D185E7174B5B680BB10F2098470F4B1C6852
:201C2000002C3FF47CAF636820461B682946984723681C68002CF6D171E70B4C2378062B9B
:201C400000F0818103F0FD03052B7FF468AF06F0C3FE0223237062E7540300209C030020F7
:201C6000F83A0100A0030020B1340020CC3A0100000300200C030020894F3D6875B12E7AC5
:201C800046B10024214628460134FFF747FEE1B28E42F8D82B681D68002DF0D1814E07F0E5
:201CA0000DFB3278931EDBB2062B30D87E49CB5C13B105F01BF93278022A28D106F082FEFB
:201CC0003C68002333704CB1784D636820461B682946984723681C68002CF6D1744B734959
:201CE000D3E900029047734B5B680BB10E2098473378023BDBB2062B3FF611AF6A4AD35C87
:201D0000002B3FF40CAFBDE8F04105F0EFB8082AD6D1D3E7624F3E688EB196F80880B8F150
:201D2000000F08D00024214630460134FFF7F6FDE1B28845F8D833681E68002EEDD1594EB9
:201D400001F078FA3278931EDBB2062B00F2EE805549CB5C002B00F0E980022A03D0082A2D
:201D600001D006F039FE534B5B68022232700BB1012098474E4B2946D3E9000290473C6841
:201D8000002C3FF4CCAE636820461B682946984723681C68002CF6D1C1E6424E3378032B56
:201DA00000F0DA8006F0D4FD00283FF4B8AE3278931EDBB2062B40F20A813F4805F068F89F
:201DC0003278022A01D0082A01D106F0FBFD06233370A4E6334E3378032B7FF4A0AE07F002
:201DE0008FFA00283FF49BAE33789A1ED2B2062A00F2F6802C498A5C12B105F077F833780A
:201E0000022B40F0ED8006F0DDFD0423337086E6244B1B78032B00F09B80082B00F098807C
:201E2000244B5B680BB100209847244B1C68002C3FF475AE636820461B68294698472368B3
:201E40005C68002CF6D16AE6164E3278082A72D0931EDBB2062B00F2A2801349CB5C002BC8
:201E600000F09D80022A00F0A38005233370114B5B680BB1032098470D4B2946D3E90002E9
:201E80009047074B1C68002C3FF449AE636820461B682946984723681C68002CF6D13EE617
:201EA0009C030020B1340020CC3A0100F43A0100540300200003002008000020A0030020A3
:201EC000494B5B680BB103209847484B4849D3E900029047474B1C684CB1454D636820465E
:201EE0001B682946984723681C68002CF6D1424E3378062B24D0082B0BD09A1ED2B2062A35
:201F00005CD83E498A5C002A58D0022B01D006F063FD0223337002E63849CB5C13B104F06A
:201F2000E5FF3278022A3FF405AE01E6344804F0AFFF327811E70223337006F057FD96E7CB
:201F400007233370EBE506F047FD08232370E6E52C48FFF70BFD63E707F0D2F900283FF448
:201F600021AF33789A1ED2B2062A36D823498A5C12B104F0BBFF3378022B2ED106F022FDBD
:201F8000042333700EE7DFF86080D8F80430002B7FF494ADA5E5082A7FF4BFADBBE518484D
:201FA00004F076FF3378022B02D0082B7FF45DAF06F008FD59E798F808009AE5104804F0BE
:201FC00067FF3378022BA4D0082BA2D09FE70B49CB5C002B7FF4F5AEEFE6082BD0D1CDE70B
:201FE000082B7FF412AF0EE70003002054030020EC3A01009C030020B1340020CC3A0100F9
:2020000008000020F03A010043681B6903B118471846704770B50A4B1D687DB12E7A4EB142
:2020200000242146002228460134FFF73DFCE1B2B142F7D32B681D68002DEFD170BD00BFE0
:202040009C03002070B5094B1D6875B12E7A46B10024214628460134FFF760FCE1B2B142F8
:20206000F8D32B681D68002DF0D170BD9C0300204360CA699A4205D38A6902600B67CB6126
:202080000020704701F1280202608B6700207047F0B5046891F808E0002C00F04484A4F226
:2020A000123CBCF17C0F00F28280BCF17C0F7ED8DFE81CF0C900E402CF02180346011F0341
:2020C000F20211037D007D007D007D007D007D00BC0316027D007D007D007D0078037C0246
:2020E0006B027D007D007D007E03000381007D007D007D007D00B803840281007D007D0047
:202100007D007D007D007D00CC037D007D007D007D006703930197027502C8027D007D0036
:20212000C102D602BA020602FF017D007D00F801260354019C037D007D00F9029003DD02C9
:20214000B203EB027D007D007D007D007D007D007D007D007D007D007D007D007D007D0007
:202160007D007D007D007D007D0056039E027D007D007D000D017D007D007D007D00AA03CF
:202180007D007D007D007D00A2037D007D007D007D007D007D007B034D017D007D007D0075
:2021A0007D00B8007D007D007D007D00B800002303601846F0BD002A00F0A2840479154695
:2021C0004FF0010C2C7000249C45047180F048830CF1010412B1057902F80C50BC4D91F837
:2021E00014C02D682E78B44500F03F83B94E6D783570B94E4FF0000C86F800C0AC45C0F063
:202200002983B64D95F800C00CF1010C5FFA8CFC85F800C0F445C0F0358340F29933036098
:202220000120F0BD012400250AB106795655AA4EA84D96F800C02D780CF1010C5FFA8CFCD6
:2022400086F800C0DAE7002A00F06F8404791470012B4FF00B04047140F2AA842546012690
:20226000022495559C420D7D057180F0D483661C15559E424FF00204047180F0BD83751CE2
:2022800094559D424FF00204047180F0A6836E1C54559E424FF00204047180F08883751C4A
:2022A0009455AB424E7E067140F26F836C1C5655A3424FF00005057140F25D831619013499
:2022C0003570864D4FF0000C85F800C0A2E7804C0125266800241AB190F804C002F804C0FC
:2022E00034780E7DA64200F0F8828E7DA64200F0AB834024AB42047140F2BF826C1C002A59
:2023000000F0D78206795655A3424FF00005057140F2BF821619013435706D4D0E7D2D6855
:202320002D78AE4200F0BA828E7DAE427FF47FAF0025A342057140F287842546013473E789
:20234000002A00F04484047901260025A0E7002A00F04A84057916460124DDE7002A00F086
:2023600056840679944601240225A3428CF80060057140F2BA822E46651C1655AB424FF0A5
:202380000504047140F2CA82264602EB050C6C1C2425A3428CF80060057140F2BA822E46E5
:2023A000651C1655AB424FF00604047140F2AC825619013534700E7D0671AB4240F29F829B
:2023C0006C1C5655A3428D7D057140F293821619013435703E4D2D6808E7002A00F0F98370
:2023E000047901264FF0000C02F80C40B3424FF00004047140F20583751C9455AB424FF09B
:202400001004047140F2EE826E1C5455B3424FF00104047140F2D08235199455AB424FF0C9
:202420000504047140F2B6826E1C5455B3424FF02404047140F2A482751C94559D424FF0C0
:202440000104047180F092822E1954559E424FF00304047180F08582751C94559D428E7D18
:20246000067180F079826C1C56559C424FF00405057180F06C821619013435709C424FF027
:202480002405057180F05E822E46651C16559D424FF00204047180F05082264602EB050CA8
:2024A0006C1C61E7002A00F0CB83057916460124E3E7002A00F0C683067901240025D3E735
:2024C000002A00F0AF83047901250026C5E700BFA4030020B2340020B4340020B3340020A0
:2024E000002A00F0968304791646012534700E7ABB4C2478B44280F0B98304EB440401F110
:202500000906B84F16F804C080F804C03444AB423C6040F27B826C1C002A00F08182067943
:202520005655A3424FF00005057140F2608204F1010C1555AB4C256863456C78047140F21A
:20254000478202EB0C060CF1010C34702C780D7DA54200F024828D7DA5427FF434AE0A24E6
:202560006345047140F27A830CF10104002A00F07882057902F80C50A3424FF00005057186
:2025800040F2118304F1010C1FE0964C2568002A00F02783047916464FF0010CD5E7002A36
:2025A00000F03A830479012600252EE7002A00F03B8305794FF0010C0024BAE7002A00F00F
:2025C0002F8305794FF0010C0024155563454FF00004047140F24F8202EB0C050CF1010C86
:2025E000F0E5002A00F0228304790125002604E7002A00F023830579944601248CF8005082
:20260000784D2E68784D96F801C02D78AC4540F22A8396F802C03544A34215F80C50057149
:2026200040F25681651C56E6002A00F0D48204790126002509E7002A00F0CF82047901269C
:202640000025F2E6002A00F0D982047901250026E3E6002A00F0E28205790126002407E642
:20266000002A00F0E782047901250026E5E6002A00F0BF820479164601259BE6002A00F04E
:20268000D782057901240026EBE5002A00F0BA820579164601249CE6002A00F0CD82067989
:2026A0000124002503E6002A00F0A1820679944601246DE6002A00F0A38205794FF0010CD0
:2026C0000024155563454C7E047185D840F22E3303600120F0BD002A00F08D820579164661
:2026E0000124EDE5002A00F09082047901250026C6E5002A00F07382047901250026CFE5B7
:2027000001250024002A40F09D810224AB42047140F213816C1C0225A342057140F2E58008
:20272000651C0524AB42047140F2F8806C1C2425A342057140F2ED80651C0624AB4204710B
:2027400040F2E28001350C7D0471AB4240F2D7806C1C8D7D0571A34240F2CC80013439E67C
:2027600001260024002A00F02C8105791555B3424FF00505057140F2A68002EB060C741CC4
:202780003CE74FF0010C0024002A00F079810579155563454FF02404047140F24E810CF128
:2027A000010621E601240025B6E601240025A6E501244FF0000C002A00F0E781057902F8E6
:2027C0000C50A3424FF00205057140F2A98104F1010C76E701250024002AAED00679E0E50B
:2027E000B3340020A4030020B434002001250024002A96D00679C0E501250026002A3FF45C
:2028000078AD0479945574E501250024002A3FF470AD067916556CE501240025002A98D0F9
:202820000679CEE501244FF0000C9FE601250024002A00F06981067916559D424FF0040413
:20284000047180F00981561901354FE601244FF0000CBFE40725A34205712FD9661C81E7A3
:202860004FF44F7303600120F0BD0525A342057140F2518104F1010C86E740F283330360DF
:202880000120F0BD0925A342057140F27981651CCEE74FF4617303600120F0BD0D6AA342DB
:2028A0002D7805713FF649AD40F2893303600120F0BDA3420271ECD901342EE540F26D337C
:2028C00003600120F0BD40F26E3303600120F0BD40F2723303600120F0BD0324AB42047132
:2028E00040F26B812C46013590E740F2523303600120F0BD40F2593303600120F0BD4FF481
:20290000567303600120F0BD40F2573303600120F0BD40F2563303600120F0BD40F255332A
:2029200003600120F0BD08240471002B7FF48BAC40F2123303600120F0BD40F2513303602F
:202940000120F0BD4FF4547303600120F0BD40F24F3303600120F0BD4FF4537303600120FC
:20296000F0BD40F24B3303600120F0BD40F24A3303600120F0BD40F2193303600120F0BD3A
:2029800040F2493303600120F0BD4FF4467303600120F0BD4FF4527303600120F0BD0224CC
:2029A0006345047140F20E810CF1010403E740F2173303600120F0BD40F245330360012072
:2029C000F0BD0524B34204717FF67DAF741C17E64FF44A7303600120F0BD40F2163303607A
:2029E0000120F0BD4FF4517303600120F0BD40F2273303600120F0BD40F215330360012016
:202A0000F0BD40F2433303600120F0BD40F2263303600120F0BD4FF4457303600120F0BD48
:202A2000A3420271E3D90134934D2D689C426E780671CDD204F1010C88E540F24233036085
:202A40000120F0BD067921E50224AB42047140F200812E460135D1E640F22133036001207D
:202A6000F0BDA342027140F29E80013400259C420571C0F0948040F2353303600120F0BDC4
:202A8000242463450471D8D90CF1010400259C420571B6D201341025A3420571A2D90134A8
:202AA00001259C42057187D22C4405259C420571BFF470AF013424259C420571BFF460AFEF
:202AC00001340125A34205717FF650AF2C4403259C420571BFF445AF01348D7D05719C42A6
:202AE000BFF43AAF013404259C420571BFF42FAF01342425A34205717FF624AF651C04E66B
:202B00004FF0010CFFF75FBB04249D420471A3D20E7A0135ECE440F2413303600120F0BD03
:202B200040F22D3303600120F0BD0B24012B04713ED902240D7D05719C42BFF46CAF0134E4
:202B400002259C420571BFF457AF01340225A34205717FF642AF013402259C420571BFF4C1
:202B600026AF01344D7E05719C42BFF40EAF013400259C420571BFF4FEAE0134FFF7A1BB28
:202B80004FF4487303600120F0BD0225A3420571C6D901344D7E05719C42BFF497AD04F1A5
:202BA000010CFFF710BB4FF44D7303600120F0BD40F2133303600120F0BD40F2773303602B
:202BC0000120F0BD4FF44B7303600120F0BD0124C2E701245AE7012479E701246BE70124A0
:202BE000C0E74FF0010CB1E40124FFF796BB01249DE50125A7E50124FFF763BB012454E7EF
:202C00000124C7E70124FFF7E5BB01249EE7012481E5764601256BE4012441E701248FE7D8
:202C2000012423E7012458E70124FDE6012432E701247FE7012444E7012499E70124DFE453
:202C4000012456E701244EE740F28E3303600120F0BD4FF45F7303600120F0BD40F23333B6
:202C600003600120F0BD00231B78FFDE024A002313601B78FFDE00BFA403002070B90B681C
:202C80001A7B202A01D006207047D3F80EC0598A1A7DC3F818C099839A7770470320704743
:202CA0004360CA699A4210D38A6910B40260C8690C6FC01A1A44C8612344003818BF0120C2
:202CC0005DF8044B8A610B67704701F12802026000208B67704700BF2DE9F0470B7888B02E
:202CE0000C4605460E2B14D8DFE803F008180808130D2813131813080808080000242046E5
:202D000008B0BDE8F0874B78DA0930D15B09012B4DD00624204608B0BDE8F0870368002498
:202D200003F134022046C3E91E44C3E920441C845C62DC625A6708B0BDE8F087027A002A0E
:202D400000F06581837A0930002B00F05E818B78E97A415C9942D1D01B061FD4E77807F084
:202D6000FD03012BCAD0002F66D00324C7E713F0600FC3F3411200F09580012AC9D18B780B
:202D8000212BC6D1B1F80720072AC2D10168601C183108B0BDE8F04700F060BAE478002C68
:202DA00000F0A080032C14BF03240024A7E78B780668202B00F09E80222BAAD1B1F80730B6
:202DC000002BA6D1B1F80330328C338403F0010702F00102BA4291D0C3691BB1C7F10301FF
:202DE000C9B29847002F89D12B7A012B40F20B816B7B05F10C08002B00F00381AB7B18F89C
:202E0000030006F0BFF82B7A012B40F2FC806B7B012B40F2F680AB7B98443C4698F80100B4
:202E200006F0B0F806F13403C6E91E77C6E920777762F762736762E72E68012A06F10C0122
:202E400000F0E1806A7B012A05F10C0340F2D980AA7B069113446F4A0592B46A93F80180F4
:202E6000002C63D1F36FC6F88030F36AC6E91E44002B00F0B58006F12C0393E8030006F1C9
:202E8000240383E803000023F36205A94046FEF7F7FC0446EB69002B3FF431AF002128469E
:202EA00098472CE703F01F03012B7FF432AF8E78062E7FF42EAF05A8039200F0DFFC03AB46
:202EC00000930746E278217928463B46FEF7ACFA05283FF41EAF601C039A394600F0BEF928
:202EE00004460CE7EB69002B3FF408AF01212846984704E7B1F80720072A7FF40AAF3373FF
:202F0000B1F80730DBB2737300200E36CDE90563079000F0DDFF05A90020FEF79DFC0446D3
:202F2000002866D0002000F0DBFFE8E6D6F884A0706A544528BF544606F13409224649466A
:202F400010F0F2FBF26FF767AAEB040309EB04011444F26AC6F88040C6E91D13002A42D0E3
:202F600006F12C0797E8030006F124044FF0000984E80300C6F82C90DBB938E0706A10F0CF
:202F8000D3FBB26AB36FC6F880209B1AB367736F13447367EB6913B1002128469847F36A02
:202FA00013B397E8030084E80300B36FC6F82C90EBB1B26A716F9342E0D21A46706A10F065
:202FC000B3FBB26FB36AF2679B1AB362736A1344736253B105A94046FEF752FC044659E7D4
:202FE0000023736256E700237362002452E7736AEFE7094B03A9CDE9033500F02BFC044645
:2030000090E73B78FFDE7B78FFDE1B78FFDE5378FFDE00BFA12C00007D2C00000368B3F876
:2030200020C01CF0010F18D00B46017A012918D9417B00F10C0C91B110B5817B84B01CF8B5
:20304000010091060CBF0124002401A9CDE901320394FEF701FC04B010BD082070470B78C5
:20306000FFDE00235B78FFDE0368D3F880007047F0B50468238CDB0783B022D505460020FC
:2030800016460F4600F024FFA26F42B9636AE3B11124002000F024FF204603B0F0BD9642F9
:2030A00028BF1646616F3246384610F03DFBD4E91D32921B3344C4E91D32C4F880600024E3
:2030C000E7E70824204603B0F0BDC4E909762A7A012A12D9697B012905F10C020FD9AB7B2A
:2030E000084D13440C3458786946CDE90054FEF7C7FB041E08BF9224CBE75B78FFDE1B7810
:20310000FFDE00BF71200000002070472DE9F04F4B6885B0CDE900020C46002B70D005F004
:2031200071FDE568019B9D4228BF1D468146002D7BD04FF0000A56464FF00108D346D4E9CD
:203140000113AB421F4628BF2F46E1B13A4609EB060010F0E9FAA268E368C4F804B0D21B0C
:20316000ED1B3E44DF1BA260E76022B3002F08BF4FF00008002DE2D1009BC3E9009640462D
:2031800005B0BDE8F08FABB1204609EB060250F8101B4B68D3F804A03B46D047A268E36816
:2031A000D21BED1B3E44DF1BA260E7605AB14FF0010ADBE7E768BAF1000F04D15FB9B8464A
:2031C000002DBCD1D8E723681B681B6823604FF0010A002FF3D02168F1B1CDF808B003E09B
:2031E000A36821680133A3604B6800225F6802A80123B8470028F3D12061002D9FD1BBE7EF
:203200000B681B681B68002B89D18B68002B86D1C0E900339846B2E76160002EACD0019BE1
:20322000B34288BF4FF00008A6E72E464FF00108A2E700BF08B50020FEF7A0FABDE8084021
:203240008020FEF79BBA00BF08B50020FEF7AAFABDE808408020FEF7A5BA00BF70B5C3883F
:2032600093421E4628BF1646934284B00D4612D8002400200394CDE9015600F029FE01A9E3
:203280008020FEF7E9FA044688B1002000F028FE204604B070BD8020144605F0ADFBB4FB70
:2032A000F0F202FB1044B4FA84F46409E1E705F081FD80280BD1094A094B92E8030083E8FA
:2032C0000300002000F00CFE204604B070BD002000F006FE1024204604B070BD5C3B010063
:2032E000CC0300202DE9F04F0B780E2B89B00CD893B1013B0D2B0FD8DFE803F07118130EAE
:2033000033480E0E0E0E18621D23852B04D1A64B1A78032A00F025810625284609B0BDE87E
:20332000F08FA24803F03AFD002878D10025284609B0BDE8F08F4FF08043D3F83834DB07FE
:203340005DD4994B1A78012AF0D0994999480A78012422F002021C700A700025FEF706FB3A
:20336000DBE705230DF115008DF8143005F08CFC9DF81530904E002203F01F043260032C59
:2033800000F29680DFE804F096BF766DC87803280C46C1D0884E3368002B00F0EE800022C8
:2033A0007168326098470546002860D13368002B00F0E580A378002BB8D105F087FCACE72A
:2033C000794A1378002BB1D079497A480B78002523F0020315700B70FEF7C8FA9DE7724AB8
:2033E0001378032B98D0724972480B78032423F0020314700B700625FEF7B8FA8DE76A4A7C
:203400001378022B92D06A496A480B78022423F0020314700B700025FEF7A8FA7DE7674B9B
:203420000122DA65BFF36F8FBFF34F8F7EE79DF81620062A00F03381082A00F01F8182B9E9
:203440005B495F4B09781A80890744BF02221A705B4902220DF11500FFF700FF0546062D74
:2034600003D105A8FEF7E2F90546002D41D005F097FC52E79DF81900020707D005A9FEF780
:20348000BFF906280546F0D19DF8153013F0600F0ED19DF81630444A9DF819401278012B02
:2034A00000F0A080032B00F08D80002B00F0AD800625DCE713F0600FC3F34117D1D1DB0995
:2034C000B5D19DF81630032B00F0B280092B00F0BE80012BC5D1BDF81730012BC1D1FEF768
:2034E00045F9002800F0F180314A137823F0020313703368002B4BD005F05CFC05460028C3
:203500007FF414AF59E79DF8190003A9FEF752F90446002840D09DF80C1005AAFEF76CF95F
:2035200006280546A1D19DF8152012F0600F9ED11D4B9DF80C101B78D20940F0DB809DF84F
:2035400016200B2A93D1052B70D1BDF81730FF2B00F2BD809DF817202046FEF7A5F90546C6
:2035600083E7134913480A78042422F002021C700A700625FEF7FAF9CFE60E2577E74FF0CC
:203580008053D3F83021082A08D005F0FFFBC4E605F0FCFB0025C0E6102568E7D3F834312E
:2035A000002BF2D1C2E600BFB5340020D4030020B6340020243B0100CC03002000700240AB
:2035C000D803002025073FF573AFBDF81730002B7FF46EAF052A01D0200727D1204605F03D
:2035E00015FB86E721073FF563AFBDF81730002B7FF45EAF052A01D0220717D1204605F0CD
:2036000033FB204605F070FF73E7052A01D027070CD1204605F006FB8549034602220DF1B8
:2036200015000B80FFF71AFE05461EE708251EE7BDF81730012B7FF414AFFEF797F8002850
:2036400043D07C4A137843F00203137051E77A4C2378043B012BE9D89DF81730002B38D077
:20366000012B34D1FEF7D6FC2378052B3FF441AF052372482370FEF779F93AE76E4A127825
:20368000052A4ED0042A7FF4ECAE694B1F70684901220DF11500FFF7E1FD0546DFE69DF8FF
:2036A0001830022B56D0032B3ED0012B7FF4D9AEBDF81B30002B3FF46BAF614912220DF1B9
:2036C0001500FFF7CBFD0546C9E60F25CFE60725CDE6FEF7B7FC2378042B3FF40AAF554A58
:2036E00056481378042123F0020321701370FEF73DF9FEE69DF81670002F7BD00A2F7FF400
:20370000B6AE052B92D120460192FEF77DFC4849019A03460B700DF11500FFF79FFD05466B
:20372000A3E6434A1370B2E7BDF81B30002B3FF42FAFBDF819109DF8170000F0B7FB0146A8
:2037400000283FF48EAE02780DF11500FFF786FD054684E6BDF81B30002B3FF419AF092BBD
:2037600028BF09239946FEF71FF84FF0090A0546B8B103974FF0000801E008F101086A68AF
:203780000123D2F804B02946002203A8D8470028F3D12A682B7A15681C44C244E4B2002D63
:2037A000E7D1234D27494A4628460FF0BDFF2C71A5F802A0FDF7DAFF18B1EB7943F020038C
:2037C000EB71FDF7F1FF204B1860BDF81B20DA600020C3E9015900F07BFB1C498020FEF716
:2037E0004FF8054690B1002000F07AFB062D7FF43EAE36E6052B7FF419AF0D4902220DF1E0
:2038000015000F80FFF72AFD05462EE605F0D2FA802808D10E4B93E8030086E80300284690
:2038200000F05EFB65E6284600F05AFB10251EE6D8030020B6340020B5340020243B01009A
:20384000483B0100283B0100B4030020643B01005C3B010038B505460C4605F0ABFAA84263
:2038600007D194E80300044A82E803000023184638BD1023184638BDCC03002008B140232F
:2038800003600148704700BFD803002030B50C7A002C75D001F1090E0468002C00F0AD8170
:2038A0006FF4AB7504EB050CBCF1140F6AD8BCF1140F67D8DFE81CF01500FA0060018B0195
:2038C0007101820157014E01E70066006600D300BF006A0066002B0069015C007A012400A7
:2038E0004901002A00F0D98104791470012B4FF00404047140F27781A44601250224DCE005
:203900004FF0010C002442B390F804E084E04FF0010C0024002A40F063810A8A9C454FEA16
:203920001222027180F07D810CF101044A8A02719C4280F0718104F1010C4A8A9C454FEAF9
:203940001222027180F063810CF101048A8A0271A34240F24D8104F1010C8A8A63454FEA07
:203960001222027162D840F26B130360012030BD4FF0010C0024002ADFD090F804E031E07F
:20398000A64689E700230360184630BD002A00F0CB8190F804C01546012485F800C091F802
:2039A00010E080F804E0A34240F2408104F1010C02F804E0B1F810E09C454FEA1E2E80F88C
:2039C00004E080F02E8102EB0C050CF1010485F800E091F812E080F804E09C4280F01C81C5
:2039E00004F1010C02F804E0B1F812E09C454FEA1E2E80F804E080F00A8102EB0C050CF194
:203A0000010485F800E091F814E080F804E09C4280F0EE8004F1010C02F804E0898A634514
:203A20004FEA112101719ED96244117040F26D130360012030BD002A00F0788190F804C089
:203A400001244FF0000E02F80EC0A3424FF0090C80F804C040F2EF80151901349DE7002A05
:203A600000F0668104794FF0010E4FF0000C02F80C4073454FF02104047140F2E180A44605
:203A80000EF10104DFE7002A00F0488104794FF0010C4FF0000E02F80E4063454FF0090427
:203AA000047140F2D2800CF1010EE0E7002A00F0378190F804C00124002502F805C0A3422E
:203AC0009EF800E080F804E040F2E28004F1010C02F804E063454FF00004047140F2D380BB
:203AE0000CF1010E02F80C4073454FF00004047140F2C4800EF1010C02F80E4063454FF053
:203B0000FF04047140F2B5800CF1010E02F80C4073454FF00104047140F2A6800EEB040CA2
:203B200002F80E4063454FF00104047140F297800CEB040E02F80C4073454FF000040471D4
:203B400040F288800EF1010CA5E7002A3FF46EAF01796AE7002A00F0F18004794FF0010EF8
:203B60004FF0000CE6E7002A00F0E48004794FF0010C4FF0000ED3E7002A00F0E38090F8DA
:203B800004E04FF0010C0024A2E7002A00F0CA8090F804E01546012419E7002A00F0D0808E
:203BA00004794FF0010C4FF0000EA5E7002A00F0C38090F804E01546012422E7002A00F0F7
:203BC000C38004794FF0010E4FF0000C9EE7002A00F0A28004794FF0010E4FF0000C81E74D
:203BE00090F804E0E4E64FF4AC730360012030BD4FF4B5730360012030BD09240471002B13
:203C00007FF46FAE40F257130360012030BD40F269130360012030BD4FF4B47303600120FA
:203C200030BD40F267130360012030BD4FF4B3730360012030BD4FF4B2730360012030BDC7
:203C400040F263130360012030BD4FF4B1730360012030BD40F25F130360012030BD4FF41B
:203C6000AF730360012030BD40F25D130360012030BD4FF4AE730360012030BD40F25B1329
:203C80000360012030BD4FF4AD730360012030BD40F259130360012030BD0422012B02710B
:203CA000A1D902249EF800200271A342F0D9013400229C420271E6D201340022A34202717E
:203CC000DCD90134FF22A3420271D2D9013401229C420271C8D214440122A3420271BED929
:203CE00014440022A3420271B4D901340922A3420271AAD901342122A3420271A0D90134AC
:203D000009229C42027196D201340A8A02719C428CD204F1010C00E60124CEE70124E5E794
:203D20000124BFE7012401E60124EEE70124E7E70124E0E70124CFE7012407E60124D0E70A
:203D40000124BFE70124B3E70124C0E70B780E2B0BD8DFE803F0080808080A0C080A0A0A58
:203D60000A08080808000020704706207047F0B54B78DA0985B00C46064611D15B09012BD5
:203D800002D0062005B0F0BD8C78002CF9D102681373036A002B39D0214698472046F1E7BA
:203DA00013F0600FC3F3411214D0012AE9D18B78072B09D0082BE4D1C2688169601C05B084
:203DC000BDE8F040FFF74ABAB1F80720182AD8D1C169F3E703F01F03012BD2D18D78062D39
:203DE000CFD103A80292FFF749FD02AB00930746E278217930463B46FDF716FB0528C0D06E
:203E0000029A3946601CFFF729FABBE71846B9E770B54FF0805286B0D2F8A830D2F8A410C6
:203E200000916FEA83436FEA93430B4A0B4E9BB20D2102A80AF0F2FA02AD002404E015F826
:203E4000013B06F8013B013402A80FF09DFC8442F5D306B070BD00BF803B0100180400204D
:203E600010B5114B53F8204023780BB9A01C10BD0020FFF703FD217899B12246C4F1010C6B
:203E800002EB0C03DCB2234620F8141012F8011F0029F5D101335B00DBB243F44073038051
:203EA00010BD40F20233FAE7E83B010040B1052808D8054A105C28B1044B53F820300BB191
:203EC000FFF7CEBF00207047003C0100E83B010072B6024A1368013313607047280400208E
:203EE000034A1368013B136003B962B6704700BF2804002010B50446006830B1002105F047
:203F00001BFE54F8040F0028F8D110BD38B50488552C054624D006D89CB1492C0DD1852906
:203F20002BD0012038BD5E2C07D1284B1B788B4234D05E232B80012038BD00232B80032004
:203F400038BD234A234B14705B699847224B22461868852105F09CFE49232B80012038BDB3
:203F60001E4BDB68002BDCD11D4A1E491E4805F01BFD1E4805F08EFF07E0194A19491A4886
:203F800005F012FD1A4805F085FF114B1B7893B1104B1B69984706F02FF8CAE7104A1149CF
:203FA000114805F001FD134805F074FF124B13489B6A9847BDE70948802100F069FF09F06F
:203FC000F7FF55232B80012038BD00BFB9340020CD340020183E01000C1000202C040020E2
:203FE000B03C0100203C0100283C0100543C0100383C0100683C0100F8410100843C01006C
:2040000010B50188044619B100232380032010BD074805F091FD074A0749084805F0C4FC10
:20402000074805F037FF00232380032010BD00BF64020020AC3C0100203C0100283C010060
:20404000B43C01002DE9F043038883B0044643B1B3F5867F0CD1822910D0012003B0BDE89C
:20406000F0834FF486730120238003B0BDE8F08300230380032003B0BDE8F08301F098FCE9
:20408000BFF35F8F19491A4B0E6800220A601F781A70FFB2BFF35F8F164D01F08DFC2868D8
:2040A0000028DED0DFF85090DFF8508003E055F8040F0028D5D090F84A3026FA03F3DA07C3
:2040C000F5D590F8493047FA03F3DB07EFD500F0E7FD0028EBD02B68D9F80020009218460D
:2040E0004246022100F07AFDE1E700BF4C040020BA340020600000200C1000207941000033
:2041000010B50D4A90F84B3082B004460133106884F84B30094A0090234604F1200080215F
:2041200000F05CFD064B19782246002002B0BDE8104005F0ADBD00BF0C1000200141000089
:20414000B734002010B4094A094C1368194311602178012202FA00F040EA0103DBB22370AA
:2041600004485DF8044B05F0C5BD00BF4C040020BA3400208800002070B582B0044600F062
:204180008FFD08B902B070BD04F12006304600F087FD94F84A10054694F8490001F044FAB9
:2041A00048B994F8483063B9002DEBD1304600F05DFD0F4B14E00128F6D194F84830002BC8
:2041C000F2D1002DDED00B4B0B4A1B68002584F84B50304600937E21234600F0FFFC074B89
:2041E00019782246284602B0BDE8704005F050BDB93400200C10002001410000B8340020B8
:20420000F8B505F091FC304B304C187005F08CFC2F4B304F187005F087FC2F4A2F4B107007
:2042200022687B600025FF213972FD60002A42D02B4E09E091F84A00F9683A72834054F83F
:20424000042F0B43FB60B2B392F84A3092F84910526C03F01F0343EA41131F2BC6BF03F020
:204260001F0331464FF0A04103F5E07342F08C0241F82350236893F84A1093F8490001F099
:204280008FF9226892F84A3092F8490003F01F0343EA4010012102F0D3FF2168387A91F8F9
:2042A000492082424FF00103C4D0FF28C2D054F8042F002AC8D10B48002105F03DFCBDE8B8
:2042C000F840044801F0C4B9B834002060000020B93400203C040020B73400204541000062
:2042E0000003005088000020042800D0704708B5054A13680133136000F0E8FD00B908BD8F
:20430000BDE8084000F0BEBD5004002000B5134B83B000221A6002F071FDC0B9002002F004
:2043200089FD0F4B0F4A93E803000090ADF804100D48694603F006FA60B901210A4803F006
:2043400055FA094803F046FA03B05DF804FBFDF705F8E3E7FDF702F8EFE700BF50040020D1
:20436000103D0100E9420000183D0100014B1868704700BF50040020014B1868C00970476C
:20438000500400202DE9F04105F0B6FAFFF7BEFF08F0EAF805F002FC00216648664FDFF8E2
:2043A000EC81664D664E674C05F0C6FB00F008FC0DF052FE0AF050F805F0A6FA05F078FD3E
:2043C000614B1B6898477B689847D8F804309847AA79EB7903EB022333802368022B39DC10
:2043E0005A4B29686A6819605A605948002105F0A3FB4FF0FF300BF0ABFB2368022B05461B
:2044000013DC05F0AFFA05F03DFE5248FFF772FD0DF04AFE05F0C8FB0446E4B20DF04CFEBC
:20442000002CF7D105F0A4FAF4E74B4A4B494C4805F0BAFA4B4805F0B7FA2368022BE0DD06
:20444000284601F0B5FC2368022BDADD0A2005F01FFDD6E7404A4149414805F0A5FA42482A
:2044600005F018FD2368022BBADD3B4A3B493C4805F09AFA3D4B3E48196805F095FA23682F
:20448000022BADDD344A3549354805F08DFAD8F80010384805F088FA2368022BA0DD2E4AEC
:2044A0002E492F4805F080FA3968334805F07CFA2368022B94DD284A2849294805F074FA38
:2044C0002E484AF6CD3105F06FFA2368022B87DD214A2249224805F067FA29481A2105F077
:2044E00063FA2368022B7FF77BAF1B4A1B491C4805F05AFA3188234805F056FA2368022B70
:204500007FF76EAF144A1549154805F04DFA1E4805F04AFA2368022B7FF762AF284601F076
:2045200057FC2368022B7FF75BAF0A2005F0B0FC56E700BFCC000020183E0100B807002007
:2045400098340020F8000020384001001C310020F8010020F43C0100203D0100203C01006C
:20456000283C0100EC3D0100283D0100F8410100603D0100703D01007C3D0100883D010040
:20458000A43D0100C43D0100D43D0100784201002DE9F0430D468B6892F82C9083B0064616
:2045A000506BD3E90078144601F0DEFB686805F0BBFCA9681C4801F0CFFC1C48294601F077
:2045C000CBFC636B1B6813B30023A38505F0DAFC174BA3FB0023C11A03EB51039B08C3EB56
:2045E000C303C11A134B144A1B68009304F10C00234600F0F3FA3FB14A46314640463B4603
:2046000003B0BDE8F043184703B0BDE8F08304F10C0000F02BFB2146084801F0A5FB21461F
:20462000074801F099FCE6E798000020B0000020254992240C10002045460000BC04002085
:20464000A400002010B32DE9F047436B1D6886B00446C5B1686805F07DFC7C490C2005F039
:2046600033F90121072005F023F900F0B1F900280DDAAB683BB105202246294606B0BDE8B5
:20468000F047FFF785BF06B0BDE8F087704705F0B1F86F4F90F802807B68039305F0AAF8AA
:2046A000064605F0B1F8039B01463046984705F01BF9BB6903930646984700282DD1002E94
:2046C00064D1D7F81C90C84738BBBB681E4605F09BF8B04700286ED002281ED0AB68002B66
:2046E000D1D00420C8E707F071FF6FF028031E1A03E007F06BFFC64202D5C8470028F8D0FB
:20470000C847002872D03B69032105A89847032803D19DF8163043453ED0AA68002AB2D09E
:2047200094F82D104B1CDBB2052B84F82D301DD8127A94F82C00904224D2012B88BF1F26FA
:204740007CD905F01FFC434AB0FBF6F112680092414A01FB1601234604F10C0000F03EFA99
:20476000686806B0BDE8F04705F0D8BB94F82C300133DBB2002184F82D1084F82C30127A68
:204780009A4216D822462946012077E7BE6805F03BF8B04700289FD1AB68002B3FF473AF89
:2047A00094F82C300020013384F82D0084F82C3062E70726C5E707F009FF6FF0180AAAEB05
:2047C000000A04E007F002FF1AEB000F02D5C8470028F7D0039B9847002884D1C8470028D9
:2047E00081D17B69984700283FF47DAFA96800293FF449AF94F82C3001330022DBB284F871
:204800002D2084F82C300A7A9A4203D822462946022033E705F0B6FB104BA3FB0023C21A87
:2048200003EB52030B4A9B0812680092C3EBC303C11A094A04F10C0023468FE70B1D012660
:20484000DBB206FA03F35E1E7BE700BFB8070020384001000C1000204546000025499224F5
:204860002DE9F041064682B00D200F4605F034F8054601F0DFFA01210B2005F019F8454BD8
:204880001C6814B916E02468A4B1201D294601F017FA0028F7D0606B01F080FA07281EDDF3
:2048A000002E57D0012206213846334602B0BDE8F0411847384801F033FB04460028EFD0AB
:2048C0002946201D01F0F6F9002304F130023148A38562632363214601F0FAF9DBE72F4892
:2048E00001F01EFB054600283FD02D4801F018FBA860002835D005F0EFFA686068B3052098
:20490000D5F8088004F0DAFFC8E9006710F0FF0006BF082388F8083088F80800606B2946F4
:2049200001F0D6F9636B1B689D4213D194F82D30012B28D91F2505F025FB1A4BB0FBF5F13E
:204940001B68009301FB1501174A234604F10C0000F044F902B0BDE8F081A968104801F015
:20496000FBFA0E48294601F0F7FA606B01F016FA002895D12146074801F0F6F921460648F6
:2049800001F0EAFA8CE70333DBB201259D40013DD1E700BFBC040020A4000020B0000020E0
:2049A000980000200C1000204546000008B5054801F0A4FA044801F0A1FABDE808400348CF
:2049C00001F09CBAB000002098000020A400002010B501210B2004F06BFF024BBDE8104092
:2049E0005B681847503E0100014B9B68184700BF503E0100014B1B6A184700BF38400100A2
:204A0000014B5B6A184700BF3840010010B50D4B82B01B6898470C4B04469B6A01A91920B4
:204A2000984701280BD0002C019BB8BF1524802BD4BFC4EB0300C4F1800002B010BD002057
:204A400002B010BD503E010038400100FFF708BF30B50D4C83B0A56A69461920A84748B9BA
:204A600001A90420A84738B101F0DCF9FFF79EFF236A984703B030BD0199E36A21F0020130
:204A8000019104209847EFE73840010030B583B004F0B4FE032801D103B030BDFFF7A4FF3E
:204AA0000028F9DB0D2004F017FF224901F008F908B30C2004F010FF1E4901F001F90446E0
:204AC0000028E9D101F0C0F90546C8B1072004F0F5FE0028E0D002238DF804308DF80540F8
:204AE00004F088FE144B8278DB688DF80620032101A89847D0E704F0F7FE0028D9D1CBE725
:204B000001F0C8F9072004F0D9FE18B90B4B9B689847C1E702238DF804308DF8055004F094
:204B200069FE054B8278DB688DF80620032101A89847EBE7B8070020384001007842010045
:204B4000F8B5038805462BB14A2B14D1882916D00120F8BD174B1C6834B1A168201D00F02E
:204B600097F92468002CF8D1134B01221A704A232B800120F8BD002303800320F8BD0D4B55
:204B80001C68002CF3D0231D9A4205D02468231D002CECD09A42F9D10648084E214601F05B
:204BA000E3F8D4E90523376832600BB1E06998473760DCE79C050020BB3400200C100020BA
:204BC000034A044B044800211170196004F0B4BFBB3400209C050020BC00002070B58261B7
:204BE0000D4A04461078E361049B636130B9A1600A482146BDE8704001F06AB8084D094B31
:204C00002E682B60201D00F043F92E6021460348BDE8704001F05CB8BB3400209C050020A0
:204C20000C100020BC00002070B50C4B1B7804462BB921460A48BDE8704001F049B8094DC9
:204C4000094B2E682B60043000F02CF92E6021460348BDE8704001F03BB800BFBB3400204F
:204C60009C0500200C100020BC00002010B50A4B1B7804463BB9C0E9033321460748BDE836
:204C8000104001F071B8043000F028F921460348BDE8104001F068B8BB3400209C050020DD
:204CA000094B1A7842B9094B01E0984209D01B68002BFAD1012070470069B0FA80F040090E
:204CC00070470020704700BFBB3400209C05002010B50446C0B20DF085F90A2C01D020464E
:204CE00010BD0DF04FF9204610BD00BFF8B588B10F46461E002500E0013516F8014F204612
:204D00004CB1AF4207D00DF06DF90A2CF4D10DF039F9F1E705460DF035F92846F8BD00BF11
:204D200010B5FFF723FB0B4B1A68D2E9003192680B44191A52B1D2E9003423441B1A9268D2
:204D4000994228BF1946002AF5D14318024A136010BD00BFA4050020A00500202DE9F843BD
:204D6000038805465BB3592B2CD187292FD0822920D12C4FDFF8B4803C684FF00009CCB194
:204D8000002603E0A3682646A3B11C4620460AF00BFC0028F6D0E0682246882104F078FFC4
:204DA00003464046002B2AD004F0A4FFA3682646002BEAD159232B800120BDE8F883194A40
:204DC0001360F7E7002303800320BDE8F883154F3968002019B9EDE789680120D9B1CB68FF
:204DE0009342F9D000B139608B68002BE2D0D868904207BF9B688B6019469B68F5E7E360B4
:204E0000A3686EB1B3603B68C4F808902BB1FFF787FF3C68B3E73960CCE7034A1360C9E70C
:204E20003B60F1E7A4050020A0050020CC00002010B50446104804F05DFF1049E3680A68B8
:204E40004BB142B194420FD0134601E09C420BD09B68002BFAD10A4BA2601B68E3600C6039
:204E6000BDE81040FFF75CBF054B1B68E360BDE81040FFF755BF00BFCC000020A4050020A3
:204E80000C100020014804F035BF00BFCC00002010B504460AF06CFB2046BDE81040FFF739
:204EA000C7BF00BF10B504460AF06AFB2046BDE81040FFF7BDBF00BF10B504460AF06EFB41
:204EC0002046BDE81040FFF7B3BF00BF024B1868003818BF01207047A405002010B5124BB1
:204EE00019688142044614D00B462BB19A68A24206D01346002BF9D10023C4E9023310BD37
:204F0000A2689A6049B1FFF70BFF0023C4E9023310BD82681A60002AF5D1044B00221A6082
:204F20000023C4E9023310BDA4050020A0050020014B1888704700BFD802002000283ED07F
:204F4000037A022B30B410D00378022B15D00379B3B10024C37913F0030318BF012301B160
:204F60000C6002B1136030BC7047C579447A037965B90CB9012BF2D0DBB100231C46EEE7CD
:204F8000447A14F0030418BF0124E3E7C4B1032D37D1032C2ED0022C24D143BB022D2DD05B
:204FA0000123032D24D1A4F10204B4FA84F46409D5E7023C012C8CBF00240124CFE7704752
:204FC0004BB9022D08BF0123EAD1A4F10304B4FA84F46409C3E7032D01D0022D02D12346B3
:204FE0001C46BCE7002BC8D1022DDAD1EDE701230024B4E7002BC0D10123D4E701231C4636
:20500000ADE7022DC7D1002BF1D1022C4FF00103DBD11C46A3E700BF30B500230B608B8002
:20502000437DDB075CBF01230B70037E012B83B00D46044623D901AA694604F11000FFF746
:205040007DFF009B0BB10223EB70019B0BB102236B70E37D03F00303022B03D0032B14BF4B
:2050600000230823AB70637E03F00303022B03D0032B14BF002308232B7103B030BDC37D22
:2050800013F0030309D0437E13F0030305D0C38B828B9B1AB3FA83F35B092375CBE700BFEF
:2050A00002280CBF012307230B441A78FF2A184603F1FF3303D18142F7D1012070470020C8
:2050C000704700BF00B583B06946FFF7A5FF9DF800309DF801209DF802009DF8031002333A
:2050E000134403449DF804209DF805000B441344184403B05DF804FB4378827890F800C0B9
:20510000DB00120102F0100203F0080313430CF0070290F803C0134302794FEA4C1C0CF08B
:20512000200C920143EA0C0302F0400213430B704379827990F809C003F00103520043EAF1
:205140008C1302F0020290F807C01343027A4FEA8C0000F00C001201034302F03002134305
:205160004B70704770B582B004460D466946FFF753FF04F110002946FFF7BEFF9DF80030E6
:20518000012B04BFA37EAB709DF801300CBF03200220022B06D1A38B2B54A28B431C120AB5
:2051A000EA5402309DF802605EB1731E2344291893F800C001F801CBA34203F1FF33F7D15D
:2051C00030449DF80330022B06D1E38B2B54E28B431C120AEA5402309DF8046056B1F31D3A
:2051E00023442918073413F8012901F8012BA342F9D1304402B070BD02784378C2F3C000C6
:2052000002F0070C4870C2F3401081F800C0C870C2F3001C03F00100C2F3801281F802C014
:205220000A71C3F3400CC3F301124871C3F381009B0981F806C0C8710A724B72704700BF6D
:20524000012943DD2DE9F04186B00F4603A914460546FFF7D1FF0B4603CB9DF811201B8893
:205260002061616123836AB3AE1C03A802AA01A9FFF764FE9DF81380B8F1000F43D0029B75
:20528000002B31D1B8F1020FA38367D0B8F1030F4DD09DF81580B8F1000F2CD0019BBBB904
:2052A000A38BE383B8F1020F4DD0B8F1030F31D0701B3B1A8742C4E90E6300DA002006B050
:2052C000BDE8F081AB78A376EE1CCEE700207047727816F8023B03EB0223029A9BB2E3834F
:2052E000002ADFD1A383DDE7727816F8023B03EB02239BB2C6E71E4904F1080000F0DAFC7E
:20530000A4F81E80D4E71A49204600F0D3FCA4F81C80BEE706F10800034604F1080213F8E1
:20532000011D02F8011BB342F9D10646C0E706F108000346621E13F8011D02F8011FB34287
:20534000F9D10646A5E70A4904F1080000F0B2FC7378237216F8023B6372A9E704492046DA
:2053600000F0A8FC7378237016F8023B637090E7B03F010030B591B004F02CFA044604F018
:205380003DFA6A4601462046FFF75AFF00283ED0044604F005FAD0B39DF810100B2004F060
:2053A00087FA9DF81310072004F082FA9DF817308BB1BDF81C50FFF7BBFD854205D0BDF8E5
:2053C0001C204FF6FF739A4221D19DF817006946FFF766FEB0B102A90C2004F075FA9DF827
:2053E00015303BB14FF6FF71062004F061FA204611B030BD9DF81A10062004F059FA2046AC
:2054000011B030BD69460D2004F05EFAE3E74FF0FF34ECE7F8B505460B2014460E46A847E7
:2054200000232074A37496B3E37463750820A847002701232376A07567740620A847A07610
:20544000FFF776FDE0830920A84701280CBF3B4603236376FFF76CFDA0830A20A847012830
:205460001AD066B90323E375637E022B0CD0E37DA3F10203B3FA83F35B092375F8BD0223C9
:20548000E375637E022BF2D101232375F8BD0720A8476675E074C9E7E775E5E730B591B02F
:2054A0000546FFF745FD4FF6FF74A0423AD04022002168460EF060F904F016FA6A46014642
:2054C0001A48FFF7A7FF04F00FFA18B3ADF800400C2004F001FA014602A800F0EBFB04F04B
:2054E00079F90E9004F08AF9034668460F93FFF7E9FD044615B9204611B030BD04F020F977
:2055000080B104F077F901466846FFF72BFE204611B030BD0D2004F0DFF90146684600F0F0
:20552000C9FBD5E74FF0FF34E5E700BFBD9800000120FFF7B3BF00BF0020FFF7AFBF00BF0E
:205540000649074A074B9B1A03DD043BC858D050FBDC09F0E1FCFBF7C7FE00003C4601005E
:2055600008000020E4020020FEE7FEE7FEE7FEE7FEE7FEE7FEE7FEE7FEE7FEE700F01F03F9
:2055800001219940C0F3471000F068B808B501F0BDFD00B108BDBDE8084001F07FBD00BF3F
:2055A00030B583B00223002501F01F018DF8063012F00C03ADF80450144641EA401508D001
:2055C000042B26D0082B28D00C2B04BF03238DF8043014F0030306D0022B16D0012B04BFC0
:2055E00003238DF805300F4A01A9284601F098FD230604D4284601F093FE03B030BD012121
:20560000284601F01DFE03B030BD01238DF80530E9E701238DF80430DBE702238DF8043045
:20562000D7E700BF7D55000001F01F0141EA40101F28CABF054B4FF0A04300F01F00D3F873
:20564000101521FA00F000F001007047000300500146014800F03CBBA805002070B50C4B5F
:205660001C689CB105460E4601E0246874B1237AAB42FAD1E36816EA0301F6D06368284685
:20568000002BF2D098472468002CF0D170BD00BFA8050020024B00221A60FFF777BF00BF38
:2056A000A805002030B5B0F84830622B83B004460BD0752B23D02BB100230320A4F848306A
:2056C00003B030BD6223A0F84830084601910EF05BF804F12C0502460199284604F018FBE7
:2056E000012809D97523A4F8483006491B22284604F00EFB0128DFD8002003B030BD00F16B
:205700002C05F2E7C83E010070B5838CA32B044631D023D8ABB39E2B30D104F108052021C5
:20572000284604F049FB012817D92849042204F152000EF031F858B9A323A38420212846F8
:2057400004F03AFB012808D994F852302F2B1BD01F4A102100231170A38470BDBC2B0DD16C
:2057600000F108050A21284604F026FB0128F4D9BC23A384F6E700F10805DFE70023A38496
:2057800070BD9E238384C8E794F85330202B13D0284604F00BFB2044002680F851600F22DC
:2057A00004F1520104F17A000EF00AF884F88960012384F89030DBE706490F2204F17A00BC
:2057C0000DF0FEFF002384F88930F1E7E43E0100DB340020A43F010010B5B0F85030044632
:2057E0006BB1853B9AB20A2A29D80A2B27D8DFE803F03D2646262626262611261A00C0F8EE
:205800008C307B300CF086FEC4F88C00D8B18D23A4F8503027492046FFF744FF012811D9E2
:205820008F23A4F85030D4F88C3020469847012808D9214B00211022C4F88C101A700023FF
:20584000A4F8503010BD1D4B84F8890007CBC4F87A001888A4F886009878C4F87E10852326
:20586000C4F8822084F88800A4F8503014492046FFF718FF0128E5D98723A4F85030B4F881
:20588000483053B1552B0BD00B4A00231021A4F848301170A4F8503010BD5523A4F848307E
:2058A0000849582204F12C0004F032FA0128EBD8C8E700BFEC3E0100DB3400205C3E01008D
:2058C000443F01006C3E0100F0B5304D2B7813F0300683B0044614D11A0612D413F04007E9
:2058E0001AD1002845D01B0746D509F05DFEB8B32023C4F88C70214625482B7000F02CFB03
:205900002EE0A4B3224800232146C4F88C3003B0BDE8F04000F020BB1D4800F001FB0446C8
:2059200038B31C4B014604F15205186809F0E6FB2722294604F10800019504F09FFA0199B6
:2059400004F12C00272204F099FA4FF4A061A4F85060C4F88C6084F89060204609F008FE4D
:205960002046FFF7D1FE94F89030012B07D003B0F0BD20232B70FAE709F010FEF0E720464A
:2059800003B0BDE8F040FFF727BF00BFDB340020DC000020702F002008B54FF4A04009F021
:2059A00097FBBDE80840014800F0A8BADC000020EFF3108072B6704780F31088704700BFFF
:2059C00010B51B4A1B4C00234FF0010C40FA03F1C90713D59178B9B1117892F801E001F089
:2059E0001F0141EA4E111F29C6BF01F01F01A6464FF0A04E0CFA01F1CEF808150133042BC8
:205A000002F10302E2D110BD117892F801E001F01F0141EA4E111F29C6BF01F01F01A646B5
:205A20004FF0A04E0CFA01F1CEF80C15E6E700BF143C0100000300500F4A10B40F4C02F1BF
:205A40000C0C03201378517803F01F0343EA41131F2BC6BF03F01F0321464FF0A04103F5BE
:205A6000E0730332944541F82300EBD15DF8044B0F20FFF7A5BF00BF143C0100000300501D
:205A800010B50948FFF7D0F8084800F099FB48B1064C037A5B0801460372204600F05CFBCA
:205AA0000028F6D110BD00BF98070020E80000200146014800F0B2BBE800002080B110B5B9
:205AC0000446FEF753FC2368C01AB0F5963F05D2207A032894BF0020012010BD002010BD6F
:205AE0000020704770B50546144689B1022907D006290CD129462B48BDE8704000F08EBB4D
:205B00002848294600F08AFB0646002832D170BD2448294600F082FB0646002835D0FEF7D7
:205B200025FC337A30602344102BA8BF10233372FEF71CFC3368C01AE401B0F5963FA4B2EF
:205B400008D2337A042BB38834BF19220A222BB9B48070BDB3881922002BF9D0C2F1640034
:205B6000114904FB02F203FB0022A1FB02325209B28070BDFEF7FAFB337A30602344102B65
:205B8000A8BF102333720C34D2E7334605480822294600F05FFB06460028B8D047F6FF7379
:205BA000C380BCE7E80000201F85EB5138B50546042003F083FE29460446224824B200F05E
:205BC0002DFB40B3B0F9062047F6FF739A422DD004EB84035B001C4C5A2112FB013284FBE0
:205BE0000234D217C2EB6414838824B2C48003B138BD04F15A0212B222EAE2721E2A134B78
:205C0000A8BF1E22D201A3FB0232120902F5807292B2828038BD034608220A48294600F0D5
:205C200019FB0028E4D047F6FF73C3808388C480002BDDD147F6FF739C42DAD14FF48072ED
:205C4000E7E700BFE80000201F85EB518988888838B5094800F0B4FA60B1074D04462146BC
:205C6000284600F07DFB2146284600F075FA04460028F4D138BD00BFE800002000B5002151
:205C800083B0084800F046FA074B084A1B680093074800234FF4E131FEF7A0FF03B05DF834
:205CA00004FB00BFE80000200C100020815A0000980700200B684A6842600360704700BFA8
:205CC00008B508220DF020FDB0FA80F0400908BD0368DBB110B4002400E0134699420FD0C9
:205CE0001A681C46002AF8D100230B600368CBB11A461B68002BFBD111605DF8044B7047B2
:205D00000A686CB1226000221A60EDE700230B6003684BB11A461B68002BFBD1116070470B
:205D20000260F0E70160E8E70160704730B405684DB12B46002400E01346994207D01A6891
:205D40001C46002AF8D10D6030BC016070470A683CB1226000221A6005680D6030BC0160D9
:205D600070470260F6E700BF03689BB110B4002400E0134699421A6805D01C46002AF8D10F
:205D80005DF8044B704734B1226000221A605DF8044B704770470260F7E700BF03682BB14D
:205DA00000201B680130002BFBD170471846704700B58BB00246282168460CF013F8694667
:205DC000024803F0F1FD0BB05DF804FBB83F010008B3F8B50025114F0446012665B1EB072B
:205DE0000FD52178384603F0DFFD082E12D0013501360134002DF2D12178384603F0D4FD54
:205E0000F5E72E2004F044F82178384603F0CCFD082EECD1F8BD024803F0C6BDCC3F0100E1
:205E2000BC3F010008B504F0ADF8014B187008BDBC340020034B197806204A1C1A7003F07F
:205E400037BD00BFBC340020F8B5FEF78FFA104E0746344600250C2003F03EFD2146FFF753
:205E60002FFF103420B90135102DF4D10020F8BD062006EB051503F021FD2B7B8342F5D157
:205E8000A868381AB0F5206F8CBF00200120F8BDC007002070B5184E002435460C2003F0FB
:205EA0001BFD2946FFF70CFF103510BB0134102CF4D10F2406EB041C64465CF8100DDCF8E1
:205EC0000410DCF80820DCF80C3066450FC4F3D1062003F0F3FC3073FEF748FA03460C2009
:205EE000B36003F0F9FCBDE8704001460248FFF7E1BE002CDED1EBE7C007002010B5044689
:205F00004288406800210DF037FC23886288A06803FB02F2BDE8104000210DF02DBC00BF74
:205F200030B44588ADB14368002202E00132AA420CD0194601330C78002CF7D101230B70FE
:205F40000588806802FB050030BC7047002030BC70472846F8E700BF10B4448882685CB1D1
:205F60008A420ED0B0F800C0002301E0914209D00133A3426244F9D14FF0FF305DF8044BC4
:205F8000704700234268D15C0029F5D00020D0545DF8044B704700BF83688B4208D84288A2
:205FA000008800FB023081422CBF00200120704700207047418849B143680020194413F8B9
:205FC000012B02B901308B42F9D170470846704738B50D4B0D4D1C68002818BF05463CB1FC
:205FE000211D2846FFF76CFE28B92468002CF7D14FF0FF3038BD064A064B9068201A80106E
:2060000003FB00F038BD00BFF0080020B03F0100FC000020ABAAAAAAF8B50F4B1C68C4B111
:206020000E4F0F4E0F4D002004E0211D05F054FC24686CB1B368E31A9B1005FB03F3FB5C0A
:20604000002BF5D10028F0D1201D2468002CF1D1F8BD2046F8BD00BFF0080020E008002000
:20606000FC000020ABAAAAAA2DE9F84F234CDFF8A0B0DFF88CA0DFF88C900546884604F164
:20608000200754F8043FBBB19E68AEB1A5B1DAF80820AA1A91100C3209FB01F10CD05868F4
:2060A000DA6800FB012038B11BF801201B6842FA03F3DB0700D5B047BC42E2D1D5B1104B70
:2060C000104A9B68EB1A9B1002FB03F30E490F480022CA5429460BF80320FFF745FEB8F15B
:2060E000000F01D1BDE8F88F29460548BDE8F84FFFF732BF4FF0FF33E8E700BFBC08002021
:20610000FC000020ABAAAAAAE0080020F0080020C809002038B10368072B04D80C4A52F8A7
:206120002330984211D00B4A1368072B0BD810B48160074903605C1C41F8230014600120AB
:206140005DF8044B704700207047816001207047C0080020C4090020844638B339B3F0B539
:20616000C46845680B1B93FBF5F3591C1CD0114A966803EB430316EB830315D00E4FDFF81C
:206180003CE01B68991B8A1007FB02F202FB054053B10C3108D030B11EF80220DCF80010C4
:2061A0000A41D207EDD5F0BD0020F0BD70470846704700BFFC000020ABAAAAAAC80900204E
:2061C000124B1968F9B1124B9B68C91AD0B111F10C0F17D00F4BC268891001FB03F34168B7
:2061E00001FB032179B110B40B4C0268E35C1341DB0703D508465DF8044B70475DF8044B36
:20620000FFF7AABF0021FFF7A7BF00BFF0080020FC000020ABAAAAAAC809002010B5044606
:206220000846FFF7D5FE84B1431C02460DD06068E36800FB023038B1054B21689B5C0B4149
:2062400013F0010F08BF002010BD002010BD00BFC80900202DE9F041002843D03B4B0C4680
:20626000002908BF1C4621460546FFF7D7FF00283CD000262046FFF7ABFE471C18D06A68D2
:20628000EC6802FB0044002120460DF075FAEB686A68E31A93FBF2F35A1C06D028682C4990
:2062A00001228240C85C0243CA542046BDE8F081DFF8A4804046FFF733FE074630B32548B1
:2062C0003946FFF705FDD8F808602146BE1B381DFFF7F0FC16F10C0F2BD100216A68084639
:2062E0000DF04AFA00242046BDE8F0812046FFF76FFE0130BDD11848FFF75CFE0028B8D1D4
:20630000FFF78AFE06460028ECD0B3E7002EE9D03046FFF75DFE411CE4D0D8F8083000EB83
:20632000400013EB8007DDD000213846FFF79CFEC5E70A496A68EC68B31001FB03F302FBE5
:206340000344002120460DF017FAA0E7B03F0100C8090020F0080020FC000020ABAAAAAA1C
:2063600020B321B3C3684268CB1A93FBF2F35A1C1DD030B5104C056814F803C0012202FA4A
:2063800005FE2CEA0E0C04F803C0C3684468CB1A93FBF4F3591C0CD0084C0068E15C02FA94
:2063A00000F021EA0001E154104630BD704700207047104630BD00BFC8090020E0080020E0
:2063C00098B189B1C2684368891A91FBF3F14B1C0AD0064A036812F801C0012000FA03F37A
:2063E00043EA0C035354704700207047E0080020A0B1A1B1C2684368891A91FBF3F14B1C32
:206400000DD010B4074C0268635C012000FA02F223EA020363545DF8044B70477047002055
:20642000704700BFE008002088B179B1C2684368881A90FBF3F0431C08D0054B996800EB23
:20644000400011EB800002D00430704700207047FC00002070B50B4B1C685CB105460E4625
:20646000012D09D01DB963680BB1984718B92468002CF5D1002070BDA3683046002BF6D0CB
:206480009847F3E7D8090020054A01231361D2F8503513F0FF03FAD1C2F8FC3F012070476F
:2064A00000100040A1B119280ED8DFE800F00F180D0D2D24635E47410D130D0D0D807C78C6
:2064C000740D706C683D3A36012070470020704702207047384B1B780B6000207047374BE8
:2064E000374AD3F80835A2FB03239B080A33DBB200200B607047334BDB7800200860002B1D
:20650000E4D001230B6070472E4B1B7800200860002BDBD004230B6070477D230B600020A3
:20652000704700200860704710230B6000207047254B93F900300B60002070471F4A0123F5
:2065400082B05361D2F81C31002BFBD00020C2F81C01D2F81C310193019BD2F8483503F0D0
:206560007F035B420B6002B07047164B5B790B6000207047134B5B780B60002070470A2311
:206580000B600020704720230B600020704703230B600020704708230B6000207047D82364
:2065A0000B60002070471A230B60002070470B230B600020704700BFBD340020001000408A
:2065C000CDCCCCCC18010020BE3400200120704730B583B0FFF7ECF9BFF35F8F1D4B1B78D9
:2065E000ABB11D4B1D4902224FF0FF34C1F80843C3F88021C3F88020BFF34F8FBFF36F8FE0
:20660000BFF35F8F03B0BDE83040FFF7D5B903F0FF02124B1049C3F83021D3F83041019407
:20662000019CC3F83421D3F8342100924FF0FF34009DC3F8084302224FF44054C1F8802191
:20664000C3F804430A60BFF35F8F03B0BDE83040FFF7B2B91801002000E100E000100040BB
:20666000144BD3F8FC0F28B1D3F85025D2B2032A01D000207047104A127802F0FF0072B17B
:206680000E4A1278053A7A2AF3D8D3F83021002AEFD1D3F83401B0FA80F040097047074AF9
:2066A0001378053B7A2BE5D892F8800080F00100704700BF0010004018010020DC0900202E
:2066C000074A1378053B7A2B08D8064BD3F8303113B992F880007047012070470020704760
:2066E000DC090020001000400D2801D001207047042A05D121B1034B1B680B60002070477E
:2067000002207047600A002070B51B4CD4F85055EDB2032D82B02AD0184B194A1949C4F83A
:206720000415C3F8102502F5DE421432C3F8142501264FF00062C3F80465C3F80425FFF739
:2067400047FFD4F8003243F01003C4F80032D4F80032022D43F40023C4F8003209D0002350
:20676000C4F85831D4F858310193019B666002B070BDA66002B070BD0010004000F0014044
:2067800038110040DC09002070B5324B324D0022C3F8382184B0D3F838410094009CC3F8B1
:2067A0000C21D3F80C410194019CC3F83421D3F834410294029CC3F830212C78D3F8303102
:2067C0000393631F7A2B039A02D8023CA1420ADA8122002120480CF0CFFFFFF795FF0024DC
:2067E000204604B070BD2246691C0CF09DFF2B191A4E5B78174A3F2B9ABF9B00DBB2FF23E0
:206800003370D2F84815164B01F07F01494249B21970042089B203F04BF83178032003F079
:2068200047F8104B2A7810491A74D1F84C055860D1F8481599605200DA6058680238186046
:206840008122002104480CF097FFFFF75DFF204604B070BD00100040DC090020BD34002097
:20686000BE340020600A0020008000407D2910B50C4609D801460A48A31C00F8013B22462A
:206880000CF052FF002010BD064A0749074803F08BF87D222146064803F086F8012010BDA6
:2068A000740A0020D43F0100E43F0100283C0100E83F010010B4174B17490F22C3F81025CE
:2068C0008A780A3A02EB8202C3F808250879CC798A794979120642EA0422024342EA014270
:2068E000C3F86C260D4C0E4840F202210022C3F83415C3F838457F21C3F83C2540F20122D8
:20690000C3F81405C3F81815C3F850265DF8044B704700BF001000401801002021100100B5
:206920000800000608B5084BD3F8FC2F1AB1FFF7EBFE012008BD0122C3F8FC2FFFF7BAFFFB
:20694000FFF7E2FE012008BD0010004010B51C491C4C1D484FF0804200230B6023704B6067
:2069600003708B6082B0CB600B74C2F80031D2F800310093012300991360D2F80031002B0E
:20698000FBD00024C2F80041D2F80031019321460E48019B03F0D0F8214681220C480CF010
:2069A000EBFE0C4B0122C3F8FC2FFFF783FF0A4A1378DBB21370FFF70BFE204602B010BD43
:2069C000600A0020BE340020BD34002008010020DC090020001000401801002000B51B4B38
:2069E000D3F8FC2F85B052B3FFF78EFE174B0022C3F84821D3F8481103910399C3F84421C9
:206A0000D3F8441102910299C3F84C21D3F84C21019201220199DA6202E0D3F844211AB957
:206A2000D3F84821002AF8D0084BD3F84801D3F84431B0FA80F0400905B05DF804FB0122FA
:206A4000C3F8FC2FFFF736FFCEE700BF0010004010B50388044663B140F2D33293420DD1C9
:206A6000822901D0012010BD134A1378053B7A2B08D940F2D3332380012010BD002303808F
:206A8000032010BD0D4BD3F830311BB992F88030002BEED00BF010FB02F0C6FD02F09AFE46
:206AA0008021FFF771FE0028E3DD80B202F08CFE034BDB689847DCE7DC09002000100040B2
:206AC000183E010010B57D2884B060D8364BD3F8FC2F002A4FD0354CFFF716FEE378002BB8
:206AE00043D16378304ADBB20121C2F80C35D160D2F85035DBB2022BFAD100232C49C2F82C
:206B00000415C2F80C31D2F80C1101910199C2F86C31D2F86C1102910299C2F85431D2F87D
:206B200054310393039BD2F8003223F01003C2F80032D2F80032012143F48023C2F80032AA
:206B4000116005F043FD6FF002031C1A05F03EFDE042FBD4144AD2F85035DBB20B2BFAD09A
:206B6000FFF7D2FD002004B010BDFFF737FF0028B7D10220F7E701220C4CC3F8FC2FFFF77C
:206B800099FEFFF7C1FDE378002BAAD0EDE7094A09490446094802F007FF2146084802F0F5
:206BA00003FF012004B010BD0010004018010020740A0020D43F0100E43F0100283C01006D
:206BC000044001007D2910B50C460CD801460D48A31C224600F8013B0CF0A6FD2046BDE82E
:206BE0001040FFF76FBF084A0849094802F0DCFE214608487D2202F0D7FE2046BDE81040E9
:206C0000FFF760BF740A0020D43F0100E43F0100283C0100E83F010010B507280FD8DFE85A
:206C200000F0101F0E0E404B52043D4B3D48C9B25971D0F8FC2F002A59D1002010BD012091
:206C400010BD012961D0002949D1364B01221A61D3F8500510F0FF00FAD1C3F8FC0F10BD2D
:206C6000A1F10B030F2B3AD82D4B2E4AC8B29870D2F8FC3F002BE0D001231361D2F85035EF
:206C800013F0FF03FAD10A3901EB8101C2F8FC3FC2F80815D2F8FC3F1BB3FFF735FD00208C
:206CA00010BD31F007041AD11D4BC1F380011970FFF78EFC204610BD31F001000FD1184BB2
:206CC000C9B2D97010BD164A164BC9B25170D3F8FC2F002AB1D0C3F80C15002010BD02209A
:206CE00010BD0123C2F8FC3FFFF7E4FDD5E71C7993F807C09A795979130643EA0C23234374
:206D000043EA0143C0F86C3697E7064BD3F8FC2F002AC2D1C3F8FC1FFFF7CCFDBDE700BF2E
:206D20001801002000100040184B1B7803B1704700B503F0FF02164BD3F8301183B029B93E
:206D4000D3F8342192B903B05DF804FBC3F83021D3F8302100920F4B00990F48012283F81F
:206D6000802003B05DF804EB02F0C4BFC3F83411D3F83431019381220648019B0CF0FCFCC2
:206D800003B05DF804EBFFF7BFBC00BF1801002000100040DC0900200801002003460022AA
:206DA00053E8000F00EA020143E8001C9CF0000FF6D1704710B580B1012800D010BD0E4C26
:206DC0002369A070002BF9D01A6822615B68012098472369002BF7D1F0E7074CA368012284
:206DE0006270002BEAD01A68A2605B6800209847A368002BF7D110BDF80A002010B50B4C8D
:206E0000237882B013B1852002B010BD08486360A3602361E36000F0B3F8019000F0BCF810
:206E200001980123237002B010BD00BFF80A0020B56D000038B5154DAB78044673B110B1DF
:206E40004368012098470020FDF742F8EB680133EB600020BDE83840FDF742B803F0FF004A
:206E6000FDF736F864B12A6942B1944208D0134601E09C4204D01B68002BFAD122602C6133
:206E8000EB68002BE2D100F09DF8DFE7F80A002038B5154D6B78044673B110B14368002028
:206EA00098470020FDF714F86B6801336B600020BDE83840FDF714B803F0FF00FDF708F81E
:206EC00064B1AA6842B1944208D0134601E09C4204D01B68002BFAD12260AC606B68002BF9
:206EE000E2D100F081F8DFE7F80A002038B50B4C0020FCF7EDFF6368013B6360656825B1DE
:206F0000BDE838400020FCF7EBBF00F07DF865700020BDE83840FCF7E3BF00BFF80A0020AA
:206F200010B5074C23784BB9064B002808BF184600F02AFB08B90123237010BD852010BD30
:206F4000BF3400207040010000B583B0019000F04FFB00F055FB019800F03CFB00F040FB8F
:206F6000002003B05DF804FB034653E8000F00EA010243E8002C9CF0000FF6D1704700BF3B
:206F8000044A137923B901211060918018467047852070470C0B0020084B1A68D20707D566
:206FA000074A4FF080410123C1F8183513707047C02283F8002301221A60F1E700E100E066
:206FC000C03400204FF080430022C3F8042182B0D3F804210192019802210122C3F8041333
:206FE0009A6002B0704700BF4FF080430022C3F8002182B0D3F80021019201990122C3F846
:2070000004231A6002B070474FF0804201235360D2F80C3403F00113B3F1011FF8D0024BA4
:2070200000225A71704700BF0C0B002010B54FF0804382B0D3F8002162B10021164AC3F882
:207040000011D3F80011507900910121009CC3F80813A8B14FF08043D3F80421CAB100226D
:20706000C3F80421D3F80421019202210A4A0198C3F808131368012002B0BDE81040184725
:207080001368517198474FF08043D3F80421002AE5D102B010BD00BF0C0B002070B5184D03
:2070A00095F86A4082B044BB3022A818FF210CF063FB28464FF0FF3640F8046B2C22FF21E5
:2070C0000CF05AFB0F4BA5F86840C022C5E9186483F8062340221A600B4BC3F87C41D3F89B
:2070E0007C11019101984FF000420121204685F86A10C3F8042302B070BD082002B070BD10
:20710000140B002000E100E000600040034B93F86A00003818BF0120704700BF140B0020A7
:20712000F0B5444D2B1893F93030002B01DB0820F0BD8E78C6F34006002E0CBF08230023C2
:2071400005EB830CACF1040C0CBF4FF00C0E4FF0080E02E001339E453ED95CF8044F01349E
:20716000F8D145F823202A185CB282F8304016B9EA1882F858008A7856071ED4D70749D59C
:207180001F2887BF2C4A00F01F0606464FF0A04202EB8602D2F8006726F00206C2F8006785
:2071A000264FC60800F0070E17F806C0012202FA0EF242EA0C02BA558A7812F002020DD164
:2071C000083C45FA84F5097895F8603043EA811385F860301046F0BD0420F0BD9B0003F1E4
:2071E000804303F5C0430978D3F8104524F44F3424F44074C3F8104502020904D3F81005C8
:2072000001F4403102F47C520A430243C3F810250020F0BD1F284E7887BF074F00F01F023B
:2072200002464FF0A04702F5E072B60047F82260B6E700BF140B002000030050780B00208F
:2072400030B4344C04EB000C82B09CF93030072B24DD083B44FA83F393F860309B09032B91
:2072600047D0012B0CBF4FF400324FF440321F288ABF294B4FF0A04300F01F0003EB800033
:20728000D0F8003723F44033C0F80037D0F800371A43C0F8002702B030BC7047DAB2072A29
:2072A000F9D8980000F1804003F1400200F5C04052B29200D0F8105592B202F1804202F5D6
:2072C000C04245F00105C0F810550020106012680192019A0029DED09CF9302054F82220D2
:2072E000002AD8D00D49012202FA03F3C1F80433D1E71F288ABF084A4FF0A04200F01F0394
:20730000D2F8102598BF0346DA4002F0010202321204ACE7140B00200003005000600040B0
:20732000194B034493F93030072B18DCDAB2072A14D810B49A0002F1804202F5C042134C7C
:20734000D2F81005012120F0010001FA03F3C2F81005C4F808335DF8044B704770471F280B
:207360008ABF0B4B4FF0A04300F01F0003EB8000D0F8003723F44033C0F80037D0F8003758
:20738000C0F80037704700BF140B002000600040000300502DE9F04F0022164689B0CDE994
:2073A0000222724B724C73480122354604E0043383424FEA420211D019680129F7D1D4F858
:2073C00004131142F3D01D60196800910433834246EA020600994FEA4202EDD1644BD3F86F
:2073E0007C21012A21D0F3B2D3B1634F01250024A30003F180432E4203F5C0434FEA450567
:207400000BD0D3F8100557F82420D3F81015C0F30520C1F3014102B190470134082CE7D1B5
:20742000002E16DB09B0BDE8F08F0022C3F87C21D3F87C3101934FF0A042019BD2F810250E
:207440004E4B0292D3F810250392F3B2002B40F089804FF0FF334A4D0DF1100ACDE9063352
:2074600000220492CAF80420A5F16408454C0027012614F9010B431C33D0C0F3C20E0EF190
:2074800020030DEB030C00F007031CF8081C06FA03F31942C2B200F03F0022D008EB0001B6
:2074A00091F9301058F821909109B9F1000F4BD003294BD01F288BBFDFF8C0E04FF0A04E17
:2074C00002F01F0202460EEB82021CF818ECD2F800C71EEA030FCCF3014C1AD1BCF1030F5B
:2074E0003BD0A542C5D1002F9CD04FF0A0430299D3F81035214A9942D2F8102502D10399E8
:2075000091428FD0DDE904010293069003920791ACE7BCF1020FE4D1032904D0B9F1000F57
:20752000DFD0C847DDE74FF4403CD2F8003723F44033C2F80037D2F8003701374CEA030319
:20754000FFB2C2F80037E9E70329CAD11AF80EB04BEA030B0AF80EB0ACE70329DED14FF46E
:20756000003CE2E746F000463FE700BF006100400060004020610040140B00200003005011
:20758000780B0020740B0020104A1378E3B903784FF08041C3F34003C1F8803503780C4877
:2075A00003F00103C1F878350368DB0703D50123137000207047C02380F8003301230360B6
:2075C000012313700020704785207047C134002000E100E0014B02681A607047880B002061
:2075E0004FF080434FF46072C3F80423704700BF4FF080434FF46072C3F80823704700BFA9
:20760000014B00221A607047880B002010B54FF0804386B0D3F80443620703D5D3F80821D4
:20762000002A62D1A30605D54FF08043D3F81421002A4FD1600605D54FF08043D3F81821D8
:20764000002A3BD1210604D54FF08043D3F81C214ABBE20504D54FF08043D3F82021B2B9AC
:20766000A30512D54FF08043D3F824216AB10022C3F82421D3F82421214B0592059A1B68F7
:20768000022006B0BDE81040184706B010BD0022C3F820211A4AD3F820310493012013686A
:2076A000049A9847DCE70020C3F81C01144AD3F81C3103931368039A9847CAE70022C3F801
:2076C0001821104AD3F81831029301201368029A9847B7E70020C3F814010A4AD3F8143165
:2076E00001931368019A9847A4E70022C3F80821054AD3F8083100931368009A984791E71E
:20770000880B0020840B0020800B002008B5FFF77DFFBDE80840FFF789BC00BF074B0022D2
:20772000C3F8002182B0D3F800210192019A044AD3F808051368C0B202B0184700D00040ED
:207740008C0B002030B41F4C437944F823201E4C03EB4303E35C93BB90F904308A78002BD3
:2077600026DB03F16043520103F56143D2B283F8002390F90430002B09DB144D4FEA531C8B
:20778000012203F01F0302FA03F345F82C3003680A88C3F8082543790879C97803EB43038F
:2077A000E21850700120E0549170002030BC7047074D03F00F035201D2B2EA54D9E70820A0
:2077C00030BC7047940B0020900B002000E100E014ED00E00368044A01211960437903EBEC
:2077E00043030221D1547047900B002010B403680024C3F8004183B0D3F8004103680194FB
:207800000122019CC3F8442311B10368C3F8042303B05DF8044B70472DE9F041274E284F36
:20782000DFF8A08084B000244FF48035D6F804332B4211D057F824300022E0B263B1C6F885
:207840004853C6F8085347F8242057F824300393D8F80030039A98470134032C4FEA450555
:20786000E4D1164BD3F80423D10702D5D3F80021C2B9124BD3F80423920710D5D3F804212D
:207880006AB10022C3F80421D3F804210D4B0192019A1B68052004B0BDE8F041184704B010
:2078A000BDE8F0810022C3F80021064AD3F80031029304201368029A9847DAE700B0004008
:2078C00040B10040940B0020084B09491B684FF0E022A1FB03139B0C916903FB00F0936912
:2078E000CB1A23F07F438342F9D37047F401002083DE1B4330B44C689C4208D20025456098
:207900000968016093420CD0002030BC704743600D6805600868E41A184493424C600860F1
